:100000000C94DD010C9405020C9405020C94AA16C4
:100010000C94AA160C94AA160C9405020C940502D2
:100020000C9405020C9405020C9405020C94050234
:100030000C9405020C9405020C9405020C94050224
:100040000C9408160C9405020C9478160C94521615
:100050000C9405020C9405020C9405020C94050204
:100060000C94B4160C940502323030207761697418
:10007000696E670032303020636F6465207375638A
:1000800063657373007474747400660074006E6F3B
:100090007420696D706C656D656E7465642079653A
:1000A00074006E6F7420696D706C656D656E74653B
:1000B0006420796574006361726420616C726561AB
:1000C000647920616374697665005D007569645FB9
:1000D000737472696E673A205B0075696400696EBB
:1000E00076616C696420636172642D6964206F724B
:1000F000206361726420616C726561642061637465
:1001000069766500696400636172642D69642069C1
:100110006E76616C6964206F72206361726420691D
:100120006E76616C696400756964003430302066F5
:1001300061696C656400636172642D696420696E35
:1001400076616C6964206F722063617264206E6FE7
:10015000742076616C6964006964007363616E0089
:1001600063617264206E6F7420666F756E64206FB9
:100170007220696E76616C69640000200066616CB3
:100180007365002074727565002C20002C20002CF3
:1001900020002000202069642C2076616C69642C8A
:1001A000207569642020202020202020202020206D
:1001B000202020202C206E616D65003230302073AD
:1001C000756363657373005D2063617264730046D9
:1001D0006F756E64205B006F70656E003430382080
:1001E0006F70656E5F74696D656F757400726562BE
:1001F0006F6F74006C6973745F6361726473007312
:1002000065745F636172646E616D650064697361DA
:10021000626C655F6361726400656E61626C655FEC
:100220006361726400636C6561725F6361726473C1
:1002300000646973706C617900636F6465003230CB
:100240003020636C6F73656400636C6F7365006F5F
:1002500070656E006F666600010002000400080011
:10026000100020004000800000010002000400088F
:10027000001000200040008000000000000000008E
:100280000000000000000000C912C015F912E300D0
:100290003005C812003A0017000006002002CE12F6
:1002A000ED12240C5D23000400240009C03FC0129D
:1002B0000008C0000000000C3F0C0600DB008F00AF
:1002C000E6006920FD000700FF00EF000012000AB1
:1002D0000024C80000098310BB02F7008F12390008
:1002E0000F12F9007100BD00F60000121E0070240C
:1002F0003800360536213F00F3003F20F320ED00A3
:1003000001123E00300C3628002D0015090C390072
:1003100000210F00030C0800000158107820D800BD
:100320008E08580871008E04701000100E00003600
:100330003000D4105010DC0070018604500088207A
:1003400078001C0004201428C0280C204808490903
:10035000001289242005FF3F726561647900000066
:100360000000240027002A000000000025002800CB
:100370002B000000000023002600290004040404D0
:10038000040404040202020202020303030303033F
:10039000010204081020408001020408102001021C
:1003A00004081020000000080002010000030407F8
:1003B0000000000000000000A51911241FBECFEFAF
:1003C000D8E0DEBFCDBF11E0A0E0B1E0E2E7F5E4A8
:1003D00002C005900D92AC3DB107D9F723E0ACED1A
:1003E000B1E001C01D92A938B207E1F711E0CDEDEF
:1003F000D1E004C02197FE010E94F41DCC3DD1073D
:10040000C9F70E94E8190C94B7220C9400002091BF
:10041000B80281E0213208F044C080919402811139
:10042000FCCF8091B70292E09093940291E0909378
:1004300093029FEF90939202109291022093900268
:10044000A7E9B2E0E0E7F2E090E0291331C01092B2
:100450006F0290916F02880F892B80936F028091B9
:100460006E02813049F510926E0280916F02809386
:10047000BB008091BC0083FDF8CF85EC8093BC006D
:10048000809194028230E1F3809192028F3FB1F02B
:10049000809192028032A1F080919202803391F09B
:1004A00084E0109296021092B8021092950208957C
:1004B0003D9131939F5FC9CF85EEE0CF80E0F1CFD2
:1004C00082E0EFCF83E0EDCFE2E7F3E0118210822C
:1004D0001382128215821482178216821186108668
:1004E000138612861586148617861686089587E465
:1004F00080937C0080917A00806480937A00809160
:100500007A0086FDFCCF8091780090917900089563
:10051000FC01538D448D252F30E0842F90E0821B09
:10052000930B541710F0CF96089501970895FC018E
:10053000918D828D981761F0A28DAE0FBF2FB11DE6
:100540005D968C91928D9F5F9F73928F90E008953E
:100550008FEF9FEF0895FC01918D828D981731F0F8
:10056000828DE80FF11D858D90E008958FEF9FEF4C
:100570000895FC01918D228D892F90E0805C9F4F22
:10058000821B91098F7399270895FC01A48DA80FF0
:10059000B92FB11DA35ABF4F2C91848D90E00196C5
:1005A0008F739927848FA689B7892C93A089B189E5
:1005B0008C91837080648C93938D848D981306C086
:1005C0000288F389E02D80818F7D80830895EF92EA
:1005D000FF920F931F93CF93DF93EC0181E0888FFD
:1005E0009B8D8C8D98131AC0E889F989808185FFCD
:1005F00015C09FB7F894EE89FF896083E889F9896F
:1006000080818370806480839FBF81E090E0DF9170
:10061000CF911F910F91FF90EF900895F62E0B8DC3
:1006200010E00F5F1F4F0F731127E02E8C8D8E117E
:100630000CC00FB607FCFACFE889F989808185FFE5
:10064000F5CFCE010E94C502F1CFEB8DEC0FFD2F4F
:10065000F11DE35AFF4FF0829FB7F8940B8FEA89A0
:10066000FB8980818062CFCF0F931F93CF93DF935D
:100670008C01D0E0C0E0F801EC0FFD1F649166230F
:1006800041F089EB92E00E94E702892B11F021965C
:10069000F2CFCE01DF91CF911F910F910895CF93AB
:1006A000DF93EC01888D8823B9F0AA89BB89E8899A
:1006B000F9898C9185FD03C0808186FD0DC00FB640
:1006C00007FCF7CF8C9185FFF2CF808185FFEDCFBE
:1006D000CE010E94C502E9CFDF91CF91089589EB49
:1006E00092E00E94B90221E0892B09F420E0822FD8
:1006F000089580E090E0892B29F00E946F0381111A
:100700000C940000089508953FB7F8948091540226
:1007100090915502A0915602B091570226B5A89B20
:1007200005C02F3F19F00196A11DB11D3FBFBA2F83
:10073000A92F982F8827BC01CD01620F711D811D43
:10074000911D43E0660F771F881F991F4A95D1F7C7
:1007500008958F929F92AF92BF92CF92DF92EF92C5
:10076000FF924B015C010E9484036B017C010E949B
:1007700084036C197D098E099F09683E73408105C9
:100780009105A8F321E0821A9108A108B10888EE2A
:10079000C80E83E0D81EE11CF11C81149104A10451
:1007A000B10429F7FF90EF90DF90CF90BF90AF900A
:1007B0009F908F9008952FB7F89460915002709198
:1007C000510280915202909153022FBF08950F93CE
:1007D0001F930E94DB036093C1027093C202809357
:1007E000C3029093C40289EB92E00E94970297FFA4
:1007F0001DC00E94DB030091C1021091C202209132
:10080000C3023091C402601B710B820B930B0091E9
:10081000BD021091BE022091BF023091C00260174C
:10082000710782079307F8F28FEF9FEF1F910F91E7
:100830000895833081F028F4813099F08230A9F056
:1008400008958730A9F08830C9F08430B1F48091E0
:1008500080008F7D03C0809180008F77809380001F
:10086000089584B58F7784BD089584B58F7DFBCFBF
:100870008091B0008F778093B00008958091B00090
:100880008F7DF9CF1F93CF93DF93282F30E0F901AD
:10089000EC55FC4F8491F901E057FC4FD491F901DC
:1008A000E458FC4FC491CC23A9F0162F81110E946B
:1008B0001904EC2FF0E0EE0FFF1FE859FC4FA59153
:1008C000B4918FB7F894EC91111108C0D095DE2344
:1008D000DC938FBFDF91CF911F910895DE2BF8CF6E
:1008E000CF93DF9390E0FC01E057FC4F24918458B4
:1008F0009C4FFC0184918823D1F090E0880F991FD0
:10090000FC01E25AFC4FA591B491FC01E859FC4F5F
:10091000C591D49161110EC09FB7F8948C91E22FCC
:10092000E0958E238C932881E223E8839FBFDF919B
:10093000CF9108958FB7F894EC91E22BEC938FBF91
:10094000F6CF08950895AF92BF92CF92DF92EF92C3
:10095000FF920F931F93CF93DF936C017B018B0169
:10096000040F151FEB015E01AE18BF08C017D107B9
:1009700059F06991D601ED91FC910190F081E02D43
:10098000C6010995892B79F7C501DF91CF911F9198
:100990000F91FF90EF90DF90CF90BF90AF900895B0
:1009A000BC016E5F7F4FDC01ED91FC910190F08105
:1009B000E02D40E0099591E0811190E0892F0895A4
:1009C00008958EBD00000DB407FEFDCF8EB50895CD
:1009D0008CBD9DBD0895DF92EF92FF920F931F9300
:1009E000CF93DF937C01062FD42E152F83E590E063
:1009F0000E94E80460E0F70186850E94420482E1DB
:100A00000E94E104CD2DD12F0C0F1D2F111DC017F9
:100A1000D10721F089910E94E104F9CF61E0F7014B
:100A20008685DF91CF911F910F91FF90EF90DF901E
:100A30000C9442041F93CF93DF93EC01162F83E5B0
:100A400090E00E94E80460E08E850E944204812FBD
:100A500080680E94E10480E00E94E104182F61E0B8
:100A60008E850E944204812FDF91CF911F910895BE
:100A70000F931F93CF93DF93EC01062F142F83E581
:100A800090E00E94E80460E08E850E944204802F7E
:100A90000E94E104812F0E94E10461E08E85DF91D4
:100AA000CF911F910F910C944204CF92DF92EF925D
:100AB000FF920F931F93CF93DF93EC016B01142FE1
:100AC000790140E062E00E94380544E06AE0CE012E
:100AD0000E94380540E864E1CE010E943805A60175
:100AE000612FCE010E94EB0443E062E0CE010E9440
:100AF000380508E813E16AE0CE010E941A0582FF7A
:100B00001BC040E062E0CE010E94380564E4CE01E3
:100B10000E941A05F701808362E4CE010E941A0543
:100B2000F701818380E0DF91CF911F910F91FF90BA
:100B3000EF90DF90CF90089501501109E1F683E026
:100B4000F2CF3F924F925F926F927F928F929F92DD
:100B5000AF92BF92CF92DF92EF92FF920F931F93CB
:100B6000CF93DF9300D0CDB7DEB74C012B01D42E4D
:100B7000390180E0E114F10411F0F7018081BC2C0F
:100B8000B29490EFB922B80E40E062E0C4010E9436
:100B900038054FE768E0C4010E94380540E864E189
:100BA000C4010E943805A2016D2DC4010E94EB040E
:100BB0004B2D6AE1C4010E9438054CE062E0C4019B
:100BC0000E9438056AE1C4010E941A05482F406856
:100BD0006AE1C4010E94380520ED422E27E0522E22
:100BE00068E0C4010E941A05982F907309F0B6C0FE
:100BF00080FD04C0F1E04F1A510891F783E094C0E2
:100C00006114710409F46DC00115110509F469C07E
:100C100064E1C4010E941A05B82EF80180818B1589
:100C200008F496C0B082BB20E1F183E590E00E9419
:100C3000E80460E0F40186850E944204BA9482E9E7
:100C40000E94E104CC20B1F08FEF90E09C0102C043
:100C5000220F331FCA94E2F7690182E90E94E1047E
:100C60009C2D9095F301208192238C21982B9083C9
:100C7000CC24C39423014C0C511CCB1440F482E9C6
:100C80000E94E104F20181932F01C394F6CF80E02A
:100C90000E94E104F201808361E0F40186850E94F4
:100CA000420468E1C4010E941A058770E114F1044E
:100CB00011F0F701808333FC4DC06114710409F415
:100CC0004BC00115110509F447C0AA2009F444C01E
:100CD000F8014081413039F4843009F049C08FEF88
:100CE00023C080E0E8CF423008F442C0811140C008
:100CF00042509E012F5F3F4FB301C4010E94550532
:100D0000811112C0F8019081690E711CF3013297B4
:100D10002081998129132CC0F1E06F1A7108F30129
:100D200020819A81291324C00F900F90DF91CF91D9
:100D30001F910F91FF90EF90DF90CF90BF90AF90F9
:100D40009F908F907F906F905F904F903F9008950D
:100D500084E0EACF82E0E8CF80E0E6CF6CE0C40137
:100D60000E941A05382E837109F44ACF81E0DCCF46
:100D700087E0DACF8F929F92AF92CF92EF92FF925D
:100D80000F931F93CF93DF9300D000D01F92CDB766
:100D9000DEB74C0182E08D8340E064E2C4010E9432
:100DA000380540E066E2C4010E94380546E268E486
:100DB000C4010E94380586E28B838D818230D8F190
:100DC0006CE1C4010E941A05482F4F776CE1C40101
:100DD0000E94380587E08C83A12CC12CCE0104969B
:100DE0007C018E010B5F1F4F9E012F5F3F4F41E043
:100DF000BE016D5F7F4FC4010E94A105982F811134
:100E000017C08D818230B9F48C81811114C081E0CA
:100E10000F900F900F900F900F90DF91CF911F9137
:100E20000F91FF90EF90CF90AF909F908F9008958B
:100E300081E0923069F380E0EBCF2F923F924F92A6
:100E40005F926F927F928F929F92AF92BF92CF925A
:100E5000DF92EF92FF920F931F93CF93DF93CDB763
:100E6000DEB72D970FB6F894DEBF0FBECDBF16E0EC
:100E7000413508F04AC1342E3B014C016CE10E941F
:100E80001A05482F4F776CE1C4010E94380583E9A9
:100E90008983332029F081E0F3019081953008F4B3
:100EA00080E022242394B12C9B2D990F990F990F48
:100EB000D32CD91AD7FCD12C32E0882319F098E82A
:100EC0009B8333E021E09D2D977009F420E09D2D58
:100ED000959595959595290FC9F094E0811193E02A
:100EE000291708F4922FEB2DF0E03196E60DF71D4F
:100EF000232F4191A1E0B0E0AC0FBD1FA20FB11DA7
:100F00004C932F5F422F431B491798F3882311F00E
:100F1000F8E0DF0E8FE18D150CF082C090E79A8328
:100F20008B819C8189279D8189279E8189278F8339
:100F30009E01285F3F4F47E0BE016F5F7F4FC401B6
:100F40000E945505182F8111E0C01A86E3E0EB8757
:100F5000DC86CE0107962C0199E09D87CA844C2D32
:100F60004295407F4C0D6AE1C4010E943805A12CD6
:100F7000CE010A967C018E01055F1F4F92014D85BF
:100F8000BE016F5F7F4FC4010E94A105182F823000
:100F900009F065C06CE1C4010E941A0585FDB5C069
:100FA0008F7109F480E2282F30E04D2DDD0C550BB8
:100FB000421753070CF09DC0D82EE82FE595E59514
:100FC000E595EF5F982F977081E009F480E0E80FD6
:100FD00081E090E08C0F9D1F8E0F911DFC01215030
:100FE00031092770332781E090E002C0880F991FF4
:100FF0002A95E2F79C018081822B80838BCF85E943
:101000008983332031F081E0F3019081983008F03A
:101010004BCF80E049CF87E9898326E0B22EF9CF14
:101020009D2D97709A878D2D8595859585958E5FD9
:10103000282F2295207F290F2A8321E0911101C0BA
:1010400020E0280F2D8744244394512C4C0E5D1E24
:10105000480E511CE9E0E81BEB87DC867FCF81114D
:1010600054C080E2D82E9C8590320CF457CF8B81EF
:10107000883809F040C083E093E0EB2DF0E0319632
:10108000E60DF71D980FA1E0B0E0AC0FBD1FA80F53
:10109000B11D2C9121938F5F8913F5CFBB84E3E0C1
:1010A000BE124DC08A8581114AC09E012D5F3F4FFF
:1010B00041E0B201C4010E945505182F811125C0DD
:1010C0009B81F201818198133CC09C81828198139D
:1010D00038C0808182FF12C02394F2E02F1609F4F9
:1010E0008ECF83E0281609F496CF91E0291609F4F3
:1010F000CECE15E00AC082E094E0BFCFF301838733
:10110000822D880F820D8F5F8083812F2D960FB6E1
:10111000F894DEBF0FBECDBFDF91CF911F910F912D
:10112000FF90EF90DF90CF90BF90AF909F908F9007
:101130007F906F905F904F903F902F90089511E0B7
:10114000E4CF17E0E2CF85ED8093BC008091BC0036
:1011500084FDFCCF10929402089520912202260F64
:101160003327331F21323105ECF420919402FC0126
:1011700090E080E0243069F082E00895A09122029E
:101180002191AC014E5F5D4FA40FB52FB11D2C9383
:101190000196861798F380912202680F60932202CD
:1011A00080E0089581E008950895E0914E028091D5
:1011B0004D02E81730F4F0E0EE51FE4F808190E0F0
:1011C00008958FEF9FEF089590914E0280914D0208
:1011D0002FEF3FEF981748F4E92FF0E0EE51FE4F64
:1011E000208130E09F5F90934E02C9010895809165
:1011F0004D0290914E02891B990B0895CF92DF9278
:10120000EF92FF920F931F93CF93DF937C01CB015B
:101210008A0120919502222389F0EB016B01C40E13
:10122000D51ECC15DD0569F06991D701ED91FC91D2
:101230000190F081E02DC7010995F3CF642F0E9442
:10124000AD08C801DF91CF911F910F91FF90EF90F2
:10125000DF90CF900895CF93DF931F92CDB7DEB785
:101260006983209195022223F9F02091B80220325F
:1012700058F021E030E0FC013383228390E080E0ED
:101280000F90DF91CF91089580919602E82FF0E0C2
:10129000E956FD4F998190838F5F809396028093EA
:1012A000B80281E090E0ECCF61E0CE0101960E94AF
:1012B000AD08F7CFCF93DF938091820391E09093B5
:1012C00095028093B702109296021092B80260E0E5
:1012D00086E593E00E942B09C2E7D3E0688122965D
:1012E00086E593E00E942B09FE013297618186E535
:1012F00093E00E942B0983E0C238D80779F7DF9189
:10130000CF910C94070290E080E0089561E087E0BF
:101310000E94700460E087E00C94420461E085E084
:101320000E94420464EF71E080E090E00E94A90313
:1013300060E085E00C944204CF92DF92EF92FF923E
:101340000F931F93CF93DF938C01D12C28E9E22ECA
:1013500022E0F22EC2E7D3E093E0C92ED801EC914F
:10136000F0E0EE0FFF1FE85AFD4F859194919F83A7
:101370008E83F70185919491998788870E945A09F5
:1013800064E670E080E090E00E94A903CA9422978E
:10139000CD1424F70F5F1F4FD394B4E0DB12DACFE4
:1013A000DF91CF911F910F91FF90EF90DF90CF9041
:1013B0000895FC0101900020E9F73197AF01481B27
:1013C000590BBC0189EB92E00C94A3048CE391E0EF
:1013D0000C94D909CF93DF9361E0809170030E9450
:1013E000700461E0809170030E9442048091710357
:1013F0008F3F09F480C060E00E9470042091710367
:1014000030E0F901EC55FC4F8491F901E057FC4FB5
:10141000D491F901E458FC4FC491C1115DC061E061
:10142000809171030E94700460E0809171030E94BA
:10143000420461E0809171030E94420462E370E023
:1014400080E090E00E94A90340E064E282E693E03D
:101450000E94380540E066E282E693E00E9438058B
:1014600046E268E482E693E00E94380540E864E5DD
:1014700082E693E00E94380549EA66E582E693E059
:101480000E94380543E068E582E693E00E94380553
:1014900048EE6AE582E693E00E94380540E46AE29D
:1014A00082E693E00E9438054DE362E282E693E033
:1014B0000E94380568E282E693E00E941A05982FA0
:1014C0009370933079F1482F436068E282E693E0AD
:1014D000DF91CF910C94380581110E941904EC2FF3
:1014E000F0E0EE0FFF1FEE58FC4FA591B491EC9188
:1014F000ED2309F494CF4FE062E082E693E00E948E
:101500003805C3E062E370E080E090E00E94A90348
:1015100062E082E693E00E941A0584FF95CFC150F5
:1015200089F792CFDF91CF91089561E087E00E9423
:10153000700461E087E00E9442040C94EA09FC0117
:1015400024813581FB014481558124173507E1F45D
:10155000FC0180819181FB01608171810097D1F054
:1015600061157105A1F4232BC1F0FC01808190E08D
:1015700008C0232B91F0FB01808190E0919581952B
:10158000910921E0892B09F020E0822F08950E9423
:10159000F91FF7CF6115710561F721E0F6CF0F93C1
:1015A0001F93CF93DF938C01EB01FC01808191812C
:1015B0000097E1F06881798161157105A9F0428198
:1015C00053812C813D814217530770F00E94022005
:1015D0008C819D81F801958384831D821C82DF911B
:1015E000CF911F910F9108950E94961E8881998135
:1015F000F801918380838A819B81938382838C818C
:101600009D8195838483198218821B821A82E5CF7B
:10161000CF93DF93EC0188819981009711F00E94AC
:10162000961E198218821D821C821B821A82DF91EB
:10163000CF910895FC0180819181009711F00C9465
:10164000961E08950F931F93CF93DF93EC0188812B
:101650009981009759F02A813B812617370730F08E
:1016600081E0DF91CF911F910F9108958B016F5F02
:101670007F4F0E941F1F009759F0998388831B8317
:101680000A832C813D81232B59F7FC011082E8CF7E
:1016900080E0E7CFEF92FF920F931F93CF93DF93FA
:1016A000EC017B01CB010E940E1D0097A9F00C817B
:1016B0001D81080F191FB801CE010E94220B88233B
:1016C00061F0288139818C819D81B701820F931F40
:1016D0000E94071D1D830C8381E0DF91CF911F9134
:1016E0000F91FF90EF900895EF92FF920F931F9349
:1016F000CF93DF936115710541F480E0DF91CF91C5
:101700001F910F91FF90EF90089541155105B1F091
:101710007B01EC010C811D81040F151FB8010E9493
:10172000220B882351F3288139818C819D81B70157
:10173000820F931F0E9402201D830C8381E0DECF65
:10174000CF93DF93EC0141E050E06FE371E00E9442
:10175000740B811103C0CE010E94080BCE01DF91F2
:10176000CF910895CF93DF93EC01FB014481558124
:10177000608171810E94740B811103C0CE010E94AF
:10178000080BCE01DF91CF910895EF92FF920F9356
:101790001F93CF93DF93EC017B018A01BA010E9472
:1017A000220B81110BC0CE010E94080BCE01DF91EC
:1017B000CF911F910F91FF90EF9008951D830C839F
:1017C000B701888199810E940220F0CFCF93DF93E7
:1017D000EC01FB018617970749F060817181611563
:1017E000710541F0448155810E94C50BCE01DF9106
:1017F000CF9108950E94080BF9CFFC01118210824D
:1018000013821282158214820C94E60BFC01118261
:1018100010821382128215821482FB010190002033
:10182000E9F73197AF01461B570B0C94C50BAF92EC
:10183000BF92CF92DF92EF92FF920F931F93CF93BD
:10184000DF937C016B015A0189012417350720F4CD
:101850008B2D5901042F182F6EE371E0C7010E94F0
:10186000060CD6011496CD91DC91AC16BD0620F580
:101870000C171D0708F4E801D601ED91FC911197B2
:10188000EC0FFD1F108110826D917C916A0D7B1D04
:1018900061157105E9F0FB0101900020E9F731972E
:1018A000AF01461B570BC7010E94C50BF601808193
:1018B0009181C80FD91F1883C701DF91CF911F9164
:1018C0000F91FF90EF90DF90CF90BF90AF90089571
:1018D000C7010E94080BEACFEF92FF920F931F936C
:1018E000CF93DF9300D000D000D0CDB7DEB78C010E
:1018F0007B0161E471E0CE0101960E94060CB70104
:10190000CE0101960E94B20B0E94A00BBC01C8013F
:101910000E94FD0BCE0101960E941A0BC80126966B
:101920000FB6F894DEBF0FBECDBFDF91CF911F91F0
:101930000F91FF90EF900895EF92FF920F931F93F6
:10194000CF93DF93EC018B01198218821B821A82DC
:101950001D821C82CB010E940E1D7C01BC01CE01A8
:101960000E94220B811109C0CE01DF91CF911F91FE
:101970000F91FF90EF900C94080BFD82EC82B80160
:1019800088819981DF91CF911F910F91FF90EF9006
:101990000C94071DCF93DF93EC0186E591E00E9444
:1019A0009C0964EC79E080E090E00E94A9030E9429
:1019B00064020E945A096BE271E0CE010E949C0C05
:1019C000CE01DF91CF9108951F93CF93DF93EC0168
:1019D000188181E1189FB00111246F5F7F4F41E1B1
:1019E00050E0CE010E941A1D81E09881911380E0A1
:1019F000DF91CF911F9108958F929F92AF92BF92E6
:101A0000CF92DF92FF920F931F93CF93DF93CDB7C7
:101A1000DEB761970FB6F894DEBF0FBECDBF5C0195
:101A2000CE0101966C0181E1F60111928A95E9F7E8
:101A300010E000E04501F2E08F0E911C8091480219
:101A40008017110671F16CF10983C6010E94E40C44
:101A5000F82E882319F144E050E0B401CE0103963A
:101A60000E94DC1F892BD1F481E1F601D5010190A0
:101A70000D928A95E1F78F2D61960FB6F894DEBF2F
:101A80000FBECDBFDF91CF911F910F91FF90DF90DF
:101A9000CF90BF90AF909F908F9008950F5F1F4F92
:101AA000CDCFF12CE8CFCF93C82F682F90E080E006
:101AB0000E943C1DC0934802CF9108952F923F92FF
:101AC0004F925F926F927F928F929F92AF92BF924E
:101AD000CF92DF92EF92FF920F931F93CF93DF93FA
:101AE000CDB7DEB7EB970FB6F894DEBF0FBECDBF14
:101AF00089EB92E00E94B902181619060CF05FC03B
:101B00006EE371E0CE018A960E94060C0E94E70304
:101B10008E010F5F1F4F97FD0FC08A30910561F056
:101B200089831A8241E050E0B801CE018A960E9472
:101B3000740B0E94E703EFCF6EE371E0CE01849651
:101B40000E94060C64E572E0C8010E949C0CB8017A
:101B5000CE018A960E949F0AF82EC8010E941A0B95
:101B6000FF2009F428C10E9464020E945A096BEB0D
:101B700071E0C8010E949C0CB801CE0184960E94BD
:101B8000CF0AC8010E941A0BBE016C5D7F4FC801CD
:101B90000E94FD0B4D815E8169817A8189EB92E023
:101BA0000E94A3040E94E609C8010E941A0BCE01FC
:101BB00084960E941A0BCE018A960E941A0B80917D
:101BC000E101882309F496C00E94DB030091DD0146
:101BD0001091DE012091DF013091E0016B017C0169
:101BE000C01AD10AE20AF30AF5ECCF16F9E0DF06D3
:101BF000E104F10408F453C0E0910001E05DF0E07D
:101C0000EE0FFF1FE85AFD4F8591949190649093D9
:101C100073038093720329E8C21623E1D206E1041C
:101C2000F10408F43CC0E0910101E05DF0E0EE0F4A
:101C3000FF1FE85AFD4F859194919064909375032E
:101C4000809374038DE4C8168DE1D806E104F10495
:101C500030F1E0910201E05DF0E0EE0FFF1FE85A85
:101C6000FD4F8591949190649093770380937603D0
:101C700091E1C91697E2D906E104F10408F4C5C759
:101C8000E0910301E05DF0E0EE0FFF1FE85AFD4F29
:101C900085919491906490937903809378030E9446
:101CA0005A09A1E1CA16A7E2DA06E104F10410F12B
:101CB00044E050E066E670E080E091E00E94F21FB0
:101CC0001092E1011092DC010E9486098CED91E0F6
:101CD0000E9434030E94E60986E591E00E949C0977
:101CE00064EC79E080E090E00E94A90385E791E050
:101CF0000E949C098091DC01882309F443C082E69C
:101D000093E00E94BA068823E9F182E693E00E94FC
:101D1000D0048823B9F1CE01019621E1FC01119292
:101D20002A95E9F740916503509166036091670336
:101D3000709168034B835C836D837E830E94FC0CEF
:101D4000882301F189818823E9F08A818823D1F0F1
:101D500087ED91E00E9434030E94E6090E948E09FB
:101D60001092E1011092DC018BE591E00E949C0948
:101D700064EC79E080E090E00E94A90385E791E0BF
:101D80000E949C09EB960FB6F894DEBF0FBECDBF44
:101D9000DF91CF911F910F91FF90EF90DF90CF9047
:101DA000BF90AF909F908F907F906F905F904F907B
:101DB0003F902F9008957E0122E1E20EF11C24E075
:101DC00030E050E040E0BE01665D7F4FC7010E94F9
:101DD000170C6FE472E0C8010E949C0CB801C701A7
:101DE0000E949F0AD82EC8010E941A0BC7010E94A8
:101DF0001A0BDD2009F46CC0BE01665D7F4FC8017F
:101E00000E94FD0B81E08093E1018093DC010E9440
:101E1000950A0E9477026C010E947702C80ED91EB3
:101E20000E947702C80ED91E0E947702B601680F81
:101E3000791F072E000C880B990B61157105810520
:101E4000910511F00E94DE1BB0E0CB2EB1E0DB2E3D
:101E500082E7A82E83E0B82E94E0892E91E0992E97
:101E60002AE0422E512C612C712C0E948F1BA30161
:101E700092010E947C1DD6016D936D01605DE62F7D
:101E8000F0E0EE0FFF1FE85AFD4F85919491F501A8
:101E9000819391935F018C149D0439F70E94DB03B9
:101EA0006093DD017093DE018093DF019093E00188
:101EB0000E945A0968E670E0C7010E949C0CB701B5
:101EC000CE0184960E94CF0AC7010E941A0B59CEF8
:101ED00069E472E0C8010E949C0CB801CE018A96A8
:101EE0000E949F0AD82EC8010E941A0BDD20B9F06B
:101EF000BE01665D7F4FC8010E94FD0B61E084E07A
:101F00000E94420464EF71E080E090E00E94A90327
:101F100060E084E00E9442046EE372E0CDCF24E0F2
:101F200030E050E040E0BE01665D7F4FC7010E9497
:101F3000170C69E372E0C8010E949C0CB801C7014C
:101F40000E949F0AD82EC8010E941A0BC7010E9446
:101F50001A0BDD2009F4F2C0BE01665D7F4FCE0191
:101F6000C0960E94FD0B8091E101882309F4CCC04A
:101F70008CA99DA9099709F0A6C029E030E045E0A9
:101F800050E0BE01605D7F4FCE014E960E94170C5F
:101F90006EE371E0C7010E94060CE0E0AE2EE1E0C6
:101FA000BE2ED12CC12C2FEFC21AD20AA60141504D
:101FB00051099601BE01625E7F4FC8010E94170C55
:101FC0004AE050E070E060E089819A810E94E71B5E
:101FD0002B013C01D5019D905D01C8010E941A0BA7
:101FE000892D990C990BAA0BBB0B6CE870E0481675
:101FF00059066A067B0611F06AE870E0C7010E9484
:102000004A0BF4E0CF16D10471F644E050E066E6E6
:1020100070E080E091E00E94F21F1092E10165E81B
:1020200070E0C8010E949C0CB801C7010E949F0A81
:10203000D82EC8010E941A0BDD2009F43FC08BE5A1
:1020400091E00E949C090E948E0968EB7BE080E091
:1020500090E00E94A90364E770E0CE01C6960E945A
:102060009C0CC7010E941A0BCE014E960E941A0BBF
:10207000BE016A5C7F4FCE0184960E94CF0ACE01DA
:10208000C6960E941A0BCE01C0960E941A0B85E7D5
:1020900091E00E949C0964EC79E080E090E00E946D
:1020A000A90364EC79E080E090E00E94A9030E941B
:1020B00064020E945A090E94860966CDCE01C69626
:1020C0000E94CA0CCECF44E050E066E670E080E0AB
:1020D00091E00E94F21F1092E10186E591E00E94DA
:1020E0009C0968EB7BE080E090E00E94A903BE01C0
:1020F000605D7F4FC8010E94FD0BB801CE01C696FE
:102100000E946C0CC801B2CF6EE371E0C7010E945F
:10211000060C60E671E0C8010E94060CB701C80118
:102120000E94B20B0E94A00BBC01CE01C6960E9479
:10213000FD0BC8010E941A0BC70198CF27E030E0C1
:1021400050E040E0BE01665D7F4FC7010E94170C62
:1021500061E372E0C8010E949C0CB801C7010E94B3
:102160009F0AD82EC8010E941A0BC7010E941A0BA1
:10217000DD2091F1BE01665D7F4FC7010E94FD0B1E
:102180002CE030E048E050E0B701C8010E94170C95
:1021900089819A810E949C0964EC79E080E090E05A
:1021A0000E94A9030E9464020E945A096BEB71E02D
:1021B000CE014E960E949C0CC8010E941A0BBE01D3
:1021C000625E7F4FCE0184960E94CF0ACE014E966A
:1021D0000E941A0BC701D6CC65E272E0C8010E94CA
:1021E0009C0CB801CE018A960E949F0AD82EC80185
:1021F0000E941A0BDD20B1F0BE01665D7F4FC80161
:102200000E94FD0B80E00E94530D8AE791E00E943E
:102210009C0964EC79E080E090E00E94A9036BEBFC
:1022200071E04ACE2BE030E050E040E0BE01665D58
:102230007F4FC7010E94170C69E172E0C8010E943C
:102240009C0CB801C7010E949F0AC82EC8010E94B9
:102250001A0BC7010E941A0BCC2009F417C2BE0149
:10226000665D7F4FCE01C0960E94FD0B20E130E0FD
:102270004CE050E0BE01605D7F4FC8010E94170C2A
:102280008D819E81892B59F06FE771E089819A8158
:102290000E94F91FDD24D394892B09F0D12CC801A9
:1022A0000E941A0BDD2009F4CAC00E94950A84E836
:1022B00091E00E949C0964EC79E080E090E00E944B
:1022C000A90380914802882309F44EC081E1F801F6
:1022D00011928A95E9F70E945E18882309F4A0C03C
:1022E00089E891E00E949C09CE0103960E94AE18F5
:1022F000882309F495C0C8010E94FC0C882329F1A9
:1023000081E08A838EE891E00E949C09C8010E94C6
:1023100032190E94860964EC79E080E090E00E9426
:10232000A9036BEB71E0CE01C6960E949C0CBE0126
:102330006A5C7F4FCE0184960E94CF0ACE01C6967A
:102340000E941A0BCE01C0961DCC81E08A830E94A8
:102350000719898390914802891303C08F5F0E94F7
:10236000530D83E991E0D0CF1092580281E0809321
:102370005902E4E6F2E085E0DF011D928A95E9F773
:1023800086E0E8E9F1E0AEE5B2E001900D928A95D1
:10239000E1F70E94DB036093DD017093DE0180931F
:1023A000DF019093E0010E94DB03C090DD01D0903B
:1023B000DE01E090DF01F090E0016C197D098E09EB
:1023C0009F09603375478105910588F582E693E0A2
:1023D0000E94BA06882339F382E693E00E94D00473
:1023E000882309F38091650390916603A0916703A8
:1023F000B091680380935A0290935B02A0935C02B1
:10240000B0935D0288E592E00E94321981E00E945B
:10241000530DF12C82E693E00E94D317FF2051F078
:102420000E948609CE01C6960E94CA0C80CFFF2466
:10243000F394F0CF8FE991E00E949C096ACF2EE0DF
:1024400030E04CE050E0BE01605D7F4FC8010E946B
:10245000170C64E071E0C7010E949C0CB701C80131
:102460000E949F0AD82EC7010E941A0BC8010E9421
:102470001A0BDD2009F444C081E1F80111928A951C
:10248000E9F722E130E04FE050E0BE01605D7F4FB0
:10249000C7010E94170C4AE050E070E060E08A89B2
:1024A0009B890E94E71B6983C8010E94E40C882372
:1024B000C9F08A81811116C081E08A83C8010E9417
:1024C00032198EE891E00E949C0964EC79E080E08A
:1024D00090E00E94A9036BEB71E0CE01C6960E94CA
:1024E0009C0C0AC08EED90E00E9434030E94E60925
:1024F000CE01C6960E94CA0CC7010E941A0B17CFC4
:102500002FE030E04CE050E0BE01605D7F4FC8013D
:102510000E94170C6AED70E0C7010E949C0CB70185
:10252000C8010E949F0AD82EC7010E941A0BC80139
:102530000E941A0BDD2009F49AC081E1D8011D9296
:102540008A95E9F72CA93DA940E150E0BE01605D04
:102550007F4FCE014E960E94170C8CEC90E00E94AB
:102560003403BE01625E7F4FC7010E94FD0B4E899E
:102570005F896A897B8989EB92E00E94A3048AECD7
:1025800090E00E9434030E94E609C7010E941A0BE2
:102590008AA19BA183319105D9F5BE01625E7F4F6F
:1025A000C7010E94FD0BBE016D5F7F4FC7010E94F6
:1025B0003E19D82EC7010E941A0BDD2009F485C1EF
:1025C000C8010E94FC0C882391F08A81811106C009
:1025D00081E08A83C8010E94321906C086EB90E030
:1025E0000E9434030E94E6096BEB71E028C00E9450
:1025F0000719898381E08A83C8010E943219898181
:10260000909148028913F0CF8F5F0E94530DECCF59
:102610004497E0F08EE890E00E94340384EA91E071
:102620000E94D9094AE067EE71E080E090E00E94E4
:102630001A180E94E6090E94860962EA70E0CE013B
:10264000C6960E949C0CCE014E9657CF0E948609DA
:10265000BE01605D7F4FC7010E94FD0BB701CE0137
:10266000C6960E946C0CC7010E941A0BECCF0E9408
:102670008609BE01605D7F4FC8010E94FD0BB80155
:10268000CE01C6960E946C0CC80137CF2CE030E01A
:1026900050E040E0BE01665D7F4FC7010E94170C0D
:1026A0006CE072E0C8010E949C0CB801C7010E9456
:1026B0009F0AD82EC8010E941A0BC7010E941A0B4C
:1026C000DD2009F40BC12EA53FA54DE050E0BE0171
:1026D000665D7F4FCE01C0960E94170C24E030E06B
:1026E00050E040E0BE01605D7F4FC8010E94170CC2
:1026F0006BE571E0C7010E949C0CB701C8010E9404
:102700009F0AD82EC7010E941A0BC8010E941A0BFB
:10271000DD20C1F184E891E00E949C0964EC79E03D
:1027200080E090E00E94A90381E1F80111928A956E
:10273000E9F70E945E18882309F474CE89E891E0D5
:102740000E949C09CE0103960E94AE18882309F4CA
:1027500069CEC8010E94FC0C882309F463CE1A825A
:102760008CEA91E00E949C09C8010E94321964EC35
:1027700079E080E090E00E94A90385E791E00E9463
:102780009C09CFCD22E030E050E040E0BE01605D2A
:102790007F4FC8010E94170C68E571E0C7010E94D5
:1027A0009C0CB701C8010E949F0AD82EC7010E9445
:1027B0001A0BC8010E941A0BDD2071F181E1D801CA
:1027C0001D928A95E9F727E030E044E050E0BE0131
:1027D000605D7F4FC7010E94170C4AE050E070E037
:1027E00060E08A899B890E94E71B6983C8010E9477
:1027F000E40C882341F08A81882329F01A82C801D9
:102800000E94321968CE86E391E00E9434030E9450
:10281000E6096BE271E061CE23E030E050E040E099
:10282000BE01605D7F4FC8010E94170C67E271E036
:10283000C7010E949C0CB701C8010E949F0AD82EB4
:10284000C7010E941A0BC8010E941A0BDD2009F46F
:1028500040C081E1F80111928A95E9F72CA93DA9C0
:1028600044E050E0BE01605D7F4FCE014E960E9475
:10287000170C8AA19BA1BE01625E7F4F439709F0AE
:10288000EACEC7010E94FD0BBE016D5F7F4FC701FD
:102890000E943E19D82EC7010E941A0BDD20A9F014
:1028A000C8010E94FC0C882319F08A8181110BC099
:1028B00087E091E00E9434030E94E609CE01C696AB
:1028C0000E94CA0CC0CE1A8285CEBE01625E7F4FC6
:1028D000C2CE85E791E00E949C09CBCE2CE030E08F
:1028E00050E040E0BE01665D7F4FC7010E94170CBB
:1028F0006FEF71E0C8010E949C0CB801C7010E94F3
:102900009F0AD82EC8010E941A0BC7010E941A0BF9
:10291000DD2009F451C0BE01665D7F4FCE01C09637
:102920000E94FD0B81E1D8011D928A95E9F720E113
:1029300030E04DE050E0BE01605D7F4FCE014E962D
:102940000E94170C2CE130E041E150E0BE01605DD7
:102950007F4FC7010E94170C4AE050E070E060E032
:102960008E8D9F8D0E94E71B6983C8010E94E40C35
:102970008823F9F08A818823E1F0CE0107962BE0C5
:10298000FC0111922A95E9F74E895F894C30510577
:1029900010F04BE050E06A897B890E94E91FC80172
:1029A0000E9432196BEB71E0CE01C6960E949C0C1E
:1029B0005ACE60E671E0F8CF2AE030E050E040E027
:1029C000BE01665D7F4FC7010E94170C64EF71E086
:1029D000C8010E949C0CB801C7010E949F0AD82E12
:1029E000C8010E941A0BC7010E941A0BDD2009F4CE
:1029F000E1C0BE01665D7F4FCE014E960E94FD0B89
:102A00008FEC91E00E9434036091480270E090E006
:102A100080E04AE00E941A1887EC91E00E9434039B
:102A20000E94E60984E991E00E9434030E94E609CD
:102A3000512C55E0452E6E01F0E3CF0ED11C66EB14
:102A4000262E61E0362E7DEB672E71E0772E809189
:102A50004802581608F09DC021E1529EB001112491
:102A60006F5F7F4F41E150E0C8010E941A1DD601FF
:102A7000E42D1D92EA95E9F789811F928F9381EBEE
:102A800091E09F938F931F92B4E0BF93DF92CF9218
:102A90000E94092082E991E00E943403C6010E944D
:102AA000D9098FE891E00E9434030FB6F894DEBF95
:102AB0000FBECDBF8A81811166C08DE791E00E9473
:102AC00034038CE891E00E94340386E0D7011D9224
:102AD0008A95E9F74E01B3E08B0E911CB12CA12C25
:102AE000F40181914F011F928F933F922F921F9279
:102AF0004F92FF92EF920E940920C7010E94D909CC
:102B00000FB6F894DEBF0FBECDBF93E0A916B10497
:102B1000E9F58AE791E00E943403AFEFAA1ABA0AF6
:102B2000B4E0AB16B104E1F689E891E00E94340309
:102B30008CE0F70111928A95E9F75E01F7E0AF0E9C
:102B4000B11C42E0942ED5018D915D01282F082EF5
:102B5000000C330B3F938F937F926F921F929F9243
:102B6000FF92EF920E940920C7010E94D9090FB677
:102B7000F894DEBF0FBECDBFEA14FB0421F70E941C
:102B8000E609539464CF83E891E099CF8BE791E015
:102B9000C2CF6BEB71E0C8010E949C0CB801CE0162
:102BA00084960E94CF0AC8010E941A0BCE014E964D
:102BB0000C94C20D6DEE71E0C8010E949C0CB8012E
:102BC000CE018A960E949F0AF82EC8010E941A0B15
:102BD000FF2021F00C9400000C94C40D60EC71E017
:102BE000C8010E94060CBE01665D7F4FC8010E94AD
:102BF000B20B0E94A00BBC01CE0184960E94E60B92
:102C0000C8010E941A0B0C94C40D0E945A0972C884
:102C10001F920F920FB60F9211242F933F938F9311
:102C20009F93AF93BF938091500290915102A091D6
:102C30005202B091530230914F0226E0230F2D37FC
:102C400058F50296A11DB11D20934F0280935002AA
:102C500090935102A0935202B09353028091540278
:102C600090915502A0915602B09157020196A11D74
:102C7000B11D8093540290935502A0935602B093D5
:102C80005702BF91AF919F918F913F912F910F90DC
:102C90000FBE0F901F90189529E8230F0396A11DD2
:102CA000B11DD2CF1F920F920FB60F9211242F9306
:102CB0003F934F935F936F937F938F939F93AF93C4
:102CC000BF93EF93FF9389EB92E00E94C502FF91BF
:102CD000EF91BF91AF919F918F917F916F915F9194
:102CE0004F913F912F910F900FBE0F901F9018950D
:102CF0001F920F920FB60F9211242F938F939F93D1
:102D0000EF93FF93E091C902F091CA028081E091B4
:102D1000CF02F091D00282FD1BC090818091D2023F
:102D20008F5F8F732091D302821741F0E091D2021E
:102D3000F0E0E754FD4F958F8093D202FF91EF9121
:102D40009F918F912F910F900FBE0F901F9018950C
:102D50008081F4CF1F920F920FB60F9211240F9023
:102D60000FBE0F901F9018951F920F920FB60F92E3
:102D700011242F933F934F935F936F937F938F9380
:102D80009F93AF93BF93EF93FF938091B900887F98
:102D9000803609F44AC0F0F5883209F4A7C018F566
:102DA000803109F49BC0B8F4882309F4F9C0883055
:102DB00009F494C0FF91EF91BF91AF919F918F91D2
:102DC0007F916F915F914F913F912F910F900FBE27
:102DD0000F901F901895883109F488C0803251F700
:102DE0008093920214C0803409F49DC040F4803373
:102DF000B9F38833F9F68093920285ECB0C0803540
:102E000009F485C0883509F496C0883499F60E9483
:102E1000A308D0CF883909F48CC038F5883729F059
:102E200050F4883611F0803729F683E080939402BD
:102E30001092440257C0883809F47BC0803919F0D9
:102E4000803809F0B7CF80914402803208F071C019
:102E5000E091440281E08E0F809344028091BB0098
:102E6000F0E0EC5DFD4F80833DC0803B39F0E0F445
:102E7000803A09F479C0883A09F09CCF84E08093C5
:102E800094021092230210922202E0914B02F091E0
:102E90004C0209958091220281110FC081E080933C
:102EA00022021092020209C0803C09F4A6CF883C9D
:102EB00009F4A3CF883B09F07DCFE091230281E0A4
:102EC0008E0F80932302F0E0EE5FFD4F80818093B0
:102ED000BB00909123028091220229C080916F0251
:102EE0008093BB0085EC8093BC0064CF90919102ED
:102EF00080919002981758F5E091910281E08E0F31
:102F000080939102F0E0E059FD4F8081E9CFE0919C
:102F1000910281E08E0F809391028091BB00F0E0DE
:102F2000E059FD4F80839091910280919002981713
:102F3000C8F285E8D8CFE091910281E08E0F8093AE
:102F400091028091BB00F0E0E059FD4F80838091B9
:102F5000930281115CCF81E080936E0284EA8093BA
:102F6000BC001092940226CF85EC8093BC00109296
:102F7000940280914402803230F4E0914402F0E007
:102F8000EC5DFD4F10826091440270E0E0914902D7
:102F9000F0914A0284E292E00995109244020ACF2D
:102FA0001092920234CF8F929F92AF92CF92DF9283
:102FB000EF92FF920F931F93CF93DF9300D000D037
:102FC000CDB7DEB74C0180E589831A829E012D5F63
:102FD0003F4F42E0BE016F5F7F4FC4010E94550525
:102FE000D82E811116C0A12CC12CF12CE12C10E09F
:102FF00000E030E020E044E0BE016F5F7F4FC4019D
:103000000E94A105833029F0D82E811102C0DD2451
:10301000D3948D2D0F900F900F900F90DF91CF9143
:103020001F910F91FF90EF90DF90CF90AF909F9006
:103030008F9008958F929F92AF92BF920F931F939C
:10304000CF93DF93CDB7DEB7A1970FB6F894DEBF6D
:103050000FBECDBF19A2423008F44AE08E010F5DC9
:103060001F4F842E912CB12CA12CA50194010E94FC
:103070005A1DE62FB901CA01EA30F4F4E05DD80127
:10308000EE938D01232B242B252B79F790E080E004
:10309000109719F0CD010E94D909A1960FB6F894A6
:1030A000DEBF0FBECDBFDF91CF911F910F91BF90BB
:1030B000AF909F908F900895E95CE1CFCF92DF921F
:1030C000EF92FF92CF93DF930E94DB036B017C01B1
:1030D00010926D02D1E00E94DB036C197D098E090C
:1030E0009F096033754781059105B0F582E693E04D
:1030F0000E94BA06882379F382E693E00E94D00406
:10310000C82F882341F344E050E065E673E08AE588
:1031100092E00E94DC1F892B61F482E693E00E941A
:10312000D3178C2FDF91CF91FF90EF90DF90CF904E
:1031300008958091650390916603A0916703B09113
:1031400068038093690290936A02A0936B02B09324
:103150006C02D0936D02BFCFC0E0E3CFCF92DF927D
:10316000EF92FF920F931F93CF938C010E94DB038A
:103170006B017C010E94DB036C197D098E099F099C
:10318000603375478105910508F03FC0C0916D021D
:10319000CC23B1F08091690290916A02A0916B02F8
:1031A000B0916C02F80180839183A283B3838C2F4A
:1031B000CF911F910F91FF90EF90DF90CF900895E6
:1031C00082E693E00E94BA068823A1F282E693E0A9
:1031D0000E94D004C82F882369F244E050E065E6DD
:1031E00073E08AE592E00E94DC1F892B49F084E0BD
:1031F000E5E6F3E0D80101900D928A95E1F7D7CF8B
:1032000082E693E00E94D317B5CFC0E0D0CF0F93F2
:103210001F93CF93DF93CDB7DEB761970FB6F894C6
:10322000DEBF0FBECDBF01E010E0809148028017E5
:10323000110651F04CF00983CE0101960E94E40C76
:103240008A8181110CC0898161960FB6F894DEBF26
:103250000FBECDBFDF91CF911F910F9108950F5FEA
:103260001F4FE3CFFC016081F1E16F9FB00111249A
:103270006F5F7F4F41E150E00C94321DCF92DF929F
:10328000EF92FF920F931F93CF93DF93CDB7DEB7EB
:103290002C970FB6F894DEBF0FBECDBFFC01248182
:1032A000358110E023313105F1F58B016C016EE3BE
:1032B00071E0CE0107960E94060C780110E000E054
:1032C00098012C5F3F4FA801B601CE0101960E94E4
:1032D000170CBE016F5F7F4FCE0107960E94CF0A89
:1032E000CE0101960E941A0B109284031092830360
:1032F00040E150E070E060E08F8198850E94E71B1C
:10330000F70161937F018091830390918403892B5E
:10331000D1F40B5F1F4F0431110591F611E0CE017E
:1033200007960E941A0B812F2C960FB6F894DEBFD9
:103330000FBECDBFDF91CF911F910F91FF90EF9006
:10334000DF90CF90089510E0EACFE9EBF2E013822E
:10335000128288EE93E0A0E0B0E084839583A68398
:10336000B78322E131E03183208325EC30E03587DB
:10337000248724EC30E03787268720EC30E0318B3F
:10338000208B21EC30E0338B228B22EC30E0358B2C
:10339000248B26EC30E0378B268B118E128E138E09
:1033A000148EE6E5F3E01382128284839583A6836C
:1033B000B78384E291E091838083E2E6F3E086E3E1
:1033C00091E09183808389E0868788E087870895EC
:1033D000789484B5826084BD84B5816084BD85B5F0
:1033E000826085BD85B5816085BD80916E008160FC
:1033F00080936E00109281008091810082608093A2
:1034000081008091810081608093810080918000A3
:103410008160809380008091B10084608093B100CE
:103420008091B00081608093B00080917A008460C8
:1034300080937A0080917A00826080937A008091F4
:103440007A008E7F80937A0080917A0080688093E2
:103450007A001092C100E091C902F091CA0282E0A4
:103460008083E091C502F091C6021082E091C7020C
:10347000F091C80287E680831092D102E091CD02DC
:10348000F091CE0286E08083E091CB02F091CC02F5
:10349000808180618083E091CB02F091CC028081B9
:1034A00088608083E091CB02F091CC0280818068BB
:1034B0008083E091CB02F091CC0280818F7D80836C
:1034C00060E085E10E94700480E197E2A0E0B0E056
:1034D0008093BD029093BE02A093BF02B093C0023E
:1034E000CFB7F89480914702811127C0E6E8F3E056
:1034F0008491EAE9F3E09491E82FF0E0EE0FFF1FEA
:10350000E25AFC4FA591B491EC91E92321F461E0DA
:103510008AE00E94420461E08AE00E9470048CB557
:1035200080618CBD8CB580648CBD61E08DE00E94B3
:10353000700461E08BE00E947004809147028F5F0D
:1035400080934702CFBF0E94EA090E94860990E05B
:1035500080E00E942A1D80934802882321F088E59C
:1035600092E00E94E40C80E78093820310924E0266
:1035700010924D02109296021092B802109294028C
:10358000C1E0C093930210926E0261E082E10E945A
:10359000420461E083E10E9442048091B9008E7F81
:1035A0008093B9008091B9008D7F8093B90080E24B
:1035B0008093B80085E48093BC0081EA94E0909306
:1035C0004C0280934B0282EA94E090934A028093EB
:1035D000490280918203C09395028093B7021092B2
:1035E00096021092B80261E286E593E00E942B09F0
:1035F0000E94070280918203C09395028093B702D4
:10360000109296021092B80261E886E593E00E945B
:103610002B090E94070280918203C0939502809338
:10362000B702109296021092B8026FEE86E593E010
:103630000E942B090E94070287ED91E00E949C09DD
:1036400064EC79E080E090E00E94A90364EC79E00A
:1036500080E090E00E94A9030E9464020E945A093F
:1036600088E593E00E9434030E94E609C0E0D0E0C0
:103670000E945E0D2097E1F30E946F038823C1F33F
:103680000E940000F5CF8F929F92AF92BF92CF928F
:10369000DF92EF92FF92CF93DF93EC016881798103
:1036A0008A819B81611571058105910521F464E290
:1036B00079ED8BE597E02DE133EF41E050E00E949A
:1036C0007C1D49015A019B01AC01A7EAB1E40E94AB
:1036D0009B1D6B017C01ACEEB4EFA50194010E942F
:1036E000A91DC60ED71EE81EF91EF7FE06C081E012
:1036F000C81AD108E10880E8F80AC882D982EA82AB
:10370000FB82C701B6019F77DF91CF91FF90EF90C9
:10371000DF90CF90BF90AF909F908F9008958F9241
:103720009F92AF92BF92CF92DF92EF92FF92609101
:1037300004017091050180910601909107016115C6
:1037400071058105910521F464E279ED8BE597E03F
:103750002DE133EF41E050E00E947C1D49015A0108
:103760009B01AC01A7EAB1E40E949B1D6B017C01A7
:10377000ACEEB4EFA50194010E94A91DC60ED71EA0
:10378000E81EF91EF7FE06C081E0C81AD108E1085C
:1037900080E8F80AC0920401D0920501E092060187
:1037A000F0920701C701B6019F77FF90EF90DF907D
:1037B000CF90BF90AF909F908F9008956093040139
:1037C0007093050180930601909307010895B0E07E
:1037D000A0E0EDEEFBE10C94AF1D5C016B017A0102
:1037E0006115710519F0FB0191838083E114F104E7
:1037F00051F0C7010297839730F040E030E020E0BD
:1038000090E072C05E01E5012196F5011081812FE3
:1038100090E00E94FE1C892BA9F71D3201F521962C
:10382000F501118101E0E114F10409F4DAC0F0E1DD
:10383000EF16F10409F082C0103359F488818F7DAE
:10384000883509F076C0198122960260F0E1EF2EEA
:10385000F12C812C912CA12C88E0B82E8CC01B322D
:1038600021F4E5012296F501118100E0DCCFEAE0C8
:10387000EE16F10409F4BBC0F0E1EF16F10409F013
:103880006DC0E7CF78E0E72EF12C812C912CA12C94
:1038900060E1B62E70C03FE9310F3A3128F439EAC1
:1038A000332E80C021E09AC0302F3170C114D10472
:1038B00031F0222309F12197F601D183C08327FF3C
:1038C00021C060E070E080E090E8311104C06FEF4B
:1038D0007FEF8FEF9FE722E230E030938403209365
:1038E0008303462F372F282F642F732F822FCDB7B6
:1038F000DEB7E1E10C94CB1D01FF04C02297F60175
:10390000D183C083332341F0909580957095619564
:103910007F4F8F4F9F4FE5CF97FFE3CF82E290E03D
:1039200090938403809383036FEF7FEF8FEF9FE784
:10393000D8CF10E3E114F10409F4A4CF28E0E21693
:10394000F10409F4A2CF0CF092CF812C912CA12C80
:10395000E0E4BE2E82E0E816F10469F060E070E079
:1039600080E090E897010F2C000C440B550B0E944F
:103970005A1D49015A0120E060E070E0CB012701A7
:103980000F2C000C66087708FE0150ED352E310E25
:1039900039E0331540F43FEB310F3A3108F07BCF7B
:1039A00049EC342E310E3E141F040CF07DCF27FD60
:1039B00015C086169706A806B90678F0A3019201ED
:1039C0000E944A1D630D711D811D911D613071059D
:1039D000810520E8920708F465CF2FEF219610812A
:1039E000D3CF103309F42ACF2AE0E22EF12C9CEC3D
:1039F000892E982CA82C9CE0B92EBDCF91110C9447
:103A0000171D803219F089508550C8F70895FB01C1
:103A1000DC0105900D920020E1F70895FC0105906E
:103A20000020E9F7809590958E0F9F1F08959927A4
:103A300088270895DC01CB01FC01F999FECF06C06F
:103A4000F2BDE1BDF89A319600B40D92415050405C
:103A5000B8F70895F999FECF92BD81BDF89A9927DC
:103A600080B50895DC01CB0103C02D910E943D1D5E
:103A700041505040D0F70895262FF999FECF1FBA34
:103A800092BD81BD20BD0FB6F894FA9AF99A0FBE87
:103A900001960895DB018F939F930E949B1DBF9118
:103AA000AF91A29F800D911DA39F900DB29F900D8D
:103AB00011240895A1E21A2EAA1BBB1BFD010DC003
:103AC000AA1FBB1FEE1FFF1FA217B307E407F507CE
:103AD00020F0A21BB30BE40BF50B661F771F881FAA
:103AE000991F1A9469F760957095809590959B0140
:103AF000AC01BD01CF010895052E97FB1EF4009483
:103B00000E94931D57FD07D00E945A1D07FC03D049
:103B10004EF40C94931D50954095309521953F4F50
:103B20004F4F5F4F089590958095709561957F4FA9
:103B30008F4F9F4F08950E94E51DA59F900DB49F44
:103B4000900DA49F800D911D11240895B7FF0C9432
:103B50009B1D0E949B1D821B930B08952F923F92E9
:103B60004F925F926F927F928F929F92AF92BF928D
:103B7000CF92DF92EF92FF920F931F93CF93DF9339
:103B8000CDB7DEB7CA1BDB0B0FB6F894DEBF0FBE96
:103B9000CDBF09942A88398848885F846E847D84E3
:103BA0008C849B84AA84B984C884DF80EE80FD80E5
:103BB0000C811B81AA81B981CE0FD11D0FB6F8945B
:103BC000DEBF0FBECDBFED010895A29FB001B39F30
:103BD000C001A39F700D811D1124911DB29F700D16
:103BE000811D1124911D0895EE0FFF1F0590F49182
:103BF000E02D09940F931F93CF93DF9382309105AB
:103C000010F482E090E0E0918703F091880330E0C7
:103C100020E0B0E0A0E0309799F42115310509F4D7
:103C20004AC0281B390B24303105D8F58A819B8185
:103C30006115710589F1FB0193838283FE0111C037
:103C4000408151810281138148175907E0F04817DC
:103C5000590799F4109761F012960C9312971396E6
:103C60001C933296CF01DF91CF911F910F91089550
:103C70000093870310938803F4CF2115310551F089
:103C80004217530738F0A901DB019A01BD01DF019A
:103C9000F801C1CFEF01F9CF909388038093870398
:103CA000CDCFFE01E20FF31F819391932250310992
:103CB00039832883D7CF2091850330918603232B26
:103CC00041F420910A0130910B0130938603209337
:103CD000850320910801309109012115310541F436
:103CE0002DB73EB740910C0150910D01241B350BAF
:103CF000E0918503F0918603E217F307A0F42E1BF1
:103D00003F0B2817390778F0AC014E5F5F4F24173F
:103D1000350748F04E0F5F1F50938603409385038D
:103D2000819391939FCFF0E0E0E09CCFCF93DF931E
:103D30000097E9F0FC01329713821282A091870369
:103D4000B0918803ED0130E020E01097A1F42081CC
:103D50003181820F931F20918503309186032817AC
:103D6000390709F061C0F0938603E0938503DF9182
:103D7000CF910895EA01CE17DF07E8F54A815B810C
:103D80009E0141155105B1F7E901FB83EA83499191
:103D90005991C40FD51FEC17FD0761F48081918103
:103DA0000296840F951FE90199838883828193810C
:103DB0009B838A83F0E0E0E012968D919C911397AB
:103DC0000097B9F52D913C911197CD010296820F84
:103DD000931F20918503309186032817390739F600
:103DE000309751F51092880310928703B0938603A1
:103DF000A0938503BCCFD383C28340815181840FBC
:103E0000951FC817D90761F44E5F5F4F888199816C
:103E1000480F591F518340838A819B8193838283FA
:103E20002115310509F0B0CFF0938803E0938703A3
:103E30009ECFFD01DC01C0CF13821282D7CFB0E04C
:103E4000A0E0E5E2FFE10C94B01D8C01009751F475
:103E5000CB010E94FA1D8C01C801CDB7DEB7E0E1AD
:103E60000C94CC1DFC01E60FF71F9C012250310978
:103E7000E217F30708F49DC0D901CD91DC911197A9
:103E8000C617D70798F0C530D10530F3CE01049797
:103E90008617970708F3C61BD70B2297C193D193B8
:103EA0006D937C93CF010E94961ED6CF5B01AC1A16
:103EB000BD0A4C018C0E9D1EA0918703B091880312
:103EC000512C412CF12CE12C109731F58091850378
:103ED000909186038815990509F05CC0461657062F
:103EE00008F058C08091080190910901009741F4B1
:103EF0008DB79EB740910C0150910D01841B950B1D
:103F0000E817F90708F055C0F0938603E09385039E
:103F1000F90171836083A0CF8D919C9111971296C6
:103F20006C90129713967C901397A815B90559F5C4
:103F30006C0142E0C40ED11CCA14DB0420F1AC01B8
:103F40004A195B09DA011296159780F06282738232
:103F500051834083D9016D937C93E114F10471F096
:103F6000D7011396FC93EE93129776CF22968C0F7F
:103F70009D1FF90191838083F301EFCFF0938803B4
:103F8000E093870369CF4816590608F42C017D0198
:103F9000D3019ACFCB010E94FA1D7C01009749F012
:103FA000AE01B8010E94E91FC8010E94961E870158
:103FB00053CF10E000E050CFFB01DC0104C08D9135
:103FC0000190801921F441505040C8F7881B990B8B
:103FD0000895FB01DC0102C001900D924150504058
:103FE000D8F70895DC0101C06D9341505040E0F7CF
:103FF0000895FB01DC018D91019080190110D9F326
:10400000990B0895FB01DC0101900D920020E1F76E
:104010000895AEE0B0E0EFE0F0E20C94BC1D0D8935
:104020001E898F89988D26E02C831A83098397FF38
:1040300002C080E090E801979E838D83AE01455ECB
:104040005F4F698D7A8DCE0101960E9439204D8196
:104050005E8157FD0AC02F813885421753070CF443
:104060009A01020F131FF80110822E96E4E00C94BF
:10407000D81DABE0B0E0EFE3F0E20C94AE1D7C01A4
:104080003B018A01FC0117821682838181FFC8C12E
:10409000CE0101965C01F7019381F30193FD8591B7
:1040A00093FF81913F01882309F453C1853239F48C
:1040B00093FD859193FF81913F01853229F4B701EA
:1040C00090E00E942922E7CF912C212C312CFFE196
:1040D000F31538F08B3211F190F4803209F183320C
:1040E00029F137FC3CC020ED280F2A3050F536FE70
:1040F00020C08AE0989E200D1124922E06C08D3299
:1041000091F0803371F7689430F8F30193FD859155
:1041100093FF81913F018111DACF21C0689431F87A
:10412000689432F8F2CF689433F8EFCF689434F89B
:10413000ECCFEAE02E9E200D1124222E689435F853
:10414000E4CF8E3229F436FC04C1689436F8DDCF12
:104150008C3619F4689437F8D8CF8836B1F2982F96
:104160009F7D95549330E0F08336A1F18337C1F100
:10417000833509F063C02801F2E04F0E511CF801AD
:10418000C080D180692D70E036FC02C06FEF7FEFF8
:10419000C6010E9413224C01689437F882010AC0BC
:1041A0000C5F1F4FFFE3F98388248394912C6501F2
:1041B000E89437F833FE2DC0522C8114910471F528
:1041C000552009F468CFB70180E290E00E942922CF
:1041D0005A94F6CFF801808189830E5F1F4FE4CF98
:1041E0002801F2E04F0E511CF801C080D180692DEA
:1041F00070E036FC02C06FEF7FEFC6010E941E2206
:104200004C018201D5CFB70180E290E00E942922C3
:104210002A942814190409F0B0F7CECFF60137FC20
:10422000859137FE81916F01B70190E00E942922AC
:1042300051105A94F1E08F1A9108BFCF843619F0CB
:10424000893609F077C0F80137FE6BC06081718153
:10425000828193810C5F1F4FF32DFF763F2E97FFD6
:1042600009C090958095709561957F4F8F4F9F4FB6
:10427000689437F82AE030E0A5010E945922C82E40
:10428000CA188C2C432C36FE0CC0E89440F8C91494
:1042900040F434FE05C032FC03C0F32DFE7E4F2EE9
:1042A000892C44FE95C0FE01EC0DF11D8081803308
:1042B00009F087C0242D297E422E842D8870582E27
:1042C00043FC95C040FE8FC09C2C821418F42C0C2B
:1042D000922C981844FE91C0B70180E390E00E94B0
:1042E000292242FE09C088E790E041FE02C088E52D
:1042F00090E0B7010E942922C91408F48AC0CA9428
:10430000D12C9FEFC91AD90ACA0CDB1CF601829185
:104310006F01B70190E00E942922AC14BD04B1F7EF
:104320004FCF60817181072E000C880B990B0E5FB7
:104330001F4F92CFD32CE894D4F82AE030E0853791
:1043400039F1232D297FD22E8F3601F148F488359B
:10435000A9F0F701868197812B96E2E10C94CA1DA2
:10436000803749F08837A9F7D4FE02C06894D2F8A4
:1043700020E130E00DC06894D4F8F6CF34FE03C0DD
:10438000822F8660D82E20E132E002C028E030E0A3
:10439000F801D7FE0FC060817181828193810C5F2B
:1043A0001F4FA5010E945922C82ECA183D2CE8941F
:1043B00037F867CF6081718190E080E00E5F1F4F1A
:1043C000F0CF42FC02C0839478CF8394839475CF5E
:1043D000842D867809F471CFF6CFB70180E290E0A2
:1043E0000E94292283948214C0F3512C73CF522C43
:1043F0005818821408F46ECFF8CF842D867809F40B
:104400007BCF8BE241FE80E247FC8DE2B70190E07A
:1044100071CFB70180E390E00E9429229A946CCF7B
:104420008FEF9FEF99CFFC01059061507040011014
:10443000D8F7809590958E0F9F1F0895FC016150CD
:10444000704001900110D8F7809590958E0F9F1FB6
:1044500008950F931F93CF93DF93182F092FEB012C
:104460008B8181FD09C01FEF0FEF812F902FDF910E
:10447000CF911F910F91089582FF14C02E813F812B
:104480008C819D81281739073CF4E881F981CF019F
:1044900001969983888310838E819F8101969F83E3
:1044A0008E83E3CFE885F985812F0995892BA1F3C8
:1044B000DACFFA01AA27283051F1203181F1E894AE
:1044C0006F936E7F6E5F7F4F8F4F9F4FAF4FB1E007
:1044D0003ED0B4E03CD0670F781F891F9A1FA11D02
:1044E000680F791F8A1F911DA11D6A0F711D811D03
:1044F000911DA11D20D009F468943F912AE0269FC8
:1045000011243019305D3193DEF6CF010895462F26
:104510004770405D4193B3E00FD0C9F7F6CF462F07
:104520004F70405D4A3318F0495D31FD4052419370
:1045300002D0A9F7EACFB4E0A6959795879577952D
:104540006795BA95C9F700976105710508959B01B4
:10455000AC010A2E06945795479537952795BA953D
:10456000C9F7620F731F841F951FA01D0895F8944B
:02457000FFCF7B
:104572006666666601000000000089038000000094
:104582000000E702A30488024F03B9029702AB02BC
:10459200000000002B09FE088309D408F708E4088C
:1045A200D508000000001D07BA06D0040D0A005D00
:1045B2000034303020696E76616C696420696E70F7
:1045C20075743A205B006661696C006F70656E00FD
:1045D20035303020696E76616C6964207374617461
:1045E200653A205B004465636B00436C4361007372
:1045F20063616E006D617374006361726400456E85
:1046020043610041644361004D617374657200410E
:10461200644D6100206C696E653A2000446143611B
:10462200002530336400307825303258002563008D
:1046320034303020696E76616C696420636F6D6D11
:0C464200616E643A205B004D444F530051
:00000001FF
