:100000000C94E3010C940B020C940B020C948511DC
:100010000C9485110C9485110C940B020C940B021A
:100020000C940B020C940B020C940B020C940B021C
:100030000C940B020C940B020C940B020C940B020C
:100040000C94C71D0C940B020C9453110C942D119D
:100050000C940B020C940B020C940B020C940B02EC
:100060000C948F110C940B0232303020776169743C
:10007000696E670032303020636F6465207375638A
:1000800063657373007474747400660074006E6F3B
:100090007420696D706C656D656E7465642079653A
:1000A00074006361726420616C72656164792061BF
:1000B0006374697665005D007569645F7374726965
:1000C0006E673A205B0075696400696E76616C69E1
:1000D0006420636172642D6964206F7220636172B1
:1000E0006420616C72656164206163746976650087
:1000F000696400636172642D696420696E76616C65
:100100006964206F72206361726420696E76616C2D
:1001100069640075696400343030206661696C651B
:100120006400636172642D696420696E76616C6934
:1001300064206F722063617264206E6F7420766138
:100140006C6964006964007363616E00636172646A
:10015000206E6F7420666F756E64206F7220696EFA
:1001600076616C69640000200066616C7365002034
:1001700074727565002C20002C20002C20002000BB
:10018000202069642C2076616C69642C2075696478
:10019000202020202020202020202020202020205F
:1001A0002C206E616D65003230302073756363659D
:1001B0007373005D20636172647300466F756E64D3
:1001C000205B006F70656E00343038206F70656E94
:1001D0005F74696D656F7574007265626F6F74002E
:1001E0006C6973745F6361726473007365745F63D9
:1001F0006172646E616D650064697361626C655FF4
:100200006361726400656E61626C655F63617264F4
:1002100000636C6561725F636172647300353031D5
:10022000206661696C656400646973706C61790053
:10023000636F64650032303020636C6F73656400F7
:10024000636C6F7365006F70656E006F66660000AB
:100250000000002300260029000404040404040410
:100260000402020202020203030303030301020465
:100270000810204080010204081020010204081028
:100280002000000008000201000003040700000035
:100290000000000000726561647900010002000442
:1002A0000008001000200040008000000100020053
:1002B0000400080010002000400080000000000042
:1002C0000000000000000000000000C912C015F985
:1002D00012E3003005C812003A00170000060020A3
:1002E00002CE12ED12240C5D23000400240009C08C
:1002F0003FC0120008C0000000000C3F0C0600DBED
:10030000008F00E6006920FD000700FF00EF0000FD
:1003100012000A0024C80000098310BB02F7008FF6
:100320001239000F12F9007100BD00F60000121E14
:100330000070243800360536213F00F3003F20F3DB
:1003400020ED0001123E00300C3628002D0015096A
:100350000C390000210F00030C0800000158107830
:1003600020D8008E08580871008E04701000100EFE
:100370000000363000D4105010DC007001860450AC
:1003800000882078001C0004201428C0280C204875
:10039000084909001289242005FF3F0000000024BD
:1003A0000027002A0000000000250028002B006E16
:1003B0006F7420696D706C656D656E74656420790D
:1003C00065740000EE1E11241FBECFEFD8E0DEBF23
:1003D000CDBF11E0A0E0B1E0E4E3F2E502C005909A
:1003E0000D92A83EB107D9F725E0A8EEB1E001C013
:1003F0001D92A63EB207E1F711E0C3EED1E004C0C2
:100400002197FE010E943824C23ED107C9F70E94FD
:1004100010200C9418290C9400002F923F924F92B8
:100420005F926F927F928F929F92AF92BF92CF9284
:10043000DF92EF92FF920F931F93CF93DF93CDB78D
:10044000DEB7EB970FB6F894DEBF0FBECDBF8AE4E0
:1004500092E00E94321B181619060CF002C769ECD4
:1004600071E0CE018A960E94181D0E945E0E8E01D8
:100470000F5F1F4F97FD0FC08A30910561F0898390
:100480001A8241E050E0B801CE018A960E945A1CBF
:100490000E945E0EEFCF69EC71E0CE0184960E945F
:1004A000181D6BE472E0C8010E94D71CB801CE0190
:1004B0008A960E94011CF82EC8010E94D21CFF20BF
:1004C000B1F0E5E0F3E085E193E0119211928E172F
:1004D0009F07D9F70E94DE0A67EA71E0C8010E940F
:1004E000D71CB801CE0184960E944F0C89C07E01B2
:1004F00022E1E20EF11C66E472E0C7010E94D71C03
:1005000024E030E040E050E0BE01665D7F4FC8016E
:100510000E942D1DB701C8010E94011CD82EC801E0
:100520000E94D21CC7010E94D21CDD2009F46CC0BD
:10053000BE01665D7F4FC8010E940F1D81E0809360
:10054000ED018093E8010E94AB1A0E940C0C6C0133
:100550000E940C0CC80ED91E0E940C0CC80ED91E8D
:100560000E940C0C8C0D9D1DBC01990F880B990BE2
:10057000611571058105910511F00E942322B0E0FB
:10058000AB2EB1E0BB2E85E0C82E83E0D82E9AE0DA
:10059000492E512C612C712C0E94D521A30192016E
:1005A0000E94C023D5016D935D01605DE62FF0E0F0
:1005B000EE0FFF1FE556FD4F85919491F601819353
:1005C00091936F01FDE0CF16F3E0DF0629F70E945B
:1005D000BB1D6093E9017093EA018093EB01909356
:1005E000EC010E94DE0A68E670E0C7010E94D71C99
:1005F000B701CE0184960E944F0CC7010E94D21C05
:10060000C8010E94D21C12C660E472E0C8010E94B8
:10061000D71CB801CE018A960E94011CD82EC801B1
:100620000E94D21CDD20B9F0BE01665D7F4FC8017B
:100630000E940F1D61E084E00E943A1E64EF71E0A9
:1006400080E090E00E94811D60E084E00E943A1EFC
:1006500065E372E0CACF60E372E0C7010E94D71C75
:1006600024E030E040E050E0BE01665D7F4FC8010D
:100670000E942D1DB701C8010E94011CD82EC8017F
:100680000E94D21CC7010E94D21CDD2009F4E0C0E8
:10069000BE01665D7F4FCE01C0960E940F1D809106
:1006A000ED01882309F4A5C08CA99DA9099709F03B
:1006B0007FC029E030E045E050E0BE01605D7F4F43
:1006C000CE014E960E942D1D69EC71E0C7010E947B
:1006D000181DF0E0AF2EF1E0BF2EC12CD12C8FEF12
:1006E000C81AD80AA601415051099601BE01625E9E
:1006F0007F4FC8010E942D1D4AE050E060E070E08D
:1007000089819A810E942C222B013C01D5019D9068
:100710005D01C8010E94D21C892D990C990BAA0B6E
:10072000BB0B481659066A067B0619F46CE870E0A4
:1007300002C06AE870E0C7010E941F0C24E0C216E4
:10074000D10469F644E050E066E670E080E091E0B4
:100750000E9440261092ED0165E870E0C8010E94F9
:10076000D71CB801C7010E94011CD82EC8010E94E5
:10077000D21CDD2099F08CE491E00E94C31A0E9403
:10078000B51A68EB7BE080E090E00E94811D64E791
:1007900070E0CE01C6960E94D71C04C0CE01C6965A
:1007A0000E94D41EC7010E94D21CCE014E963AC0B0
:1007B00044E050E066E670E080E091E00E94402670
:1007C0001092ED0181E591E00E94C31A68EB7BE095
:1007D00080E090E00E94811DBE01605D7F4FC801F6
:1007E0000E940F1DB801CE01C6960E94950FC80148
:1007F00019C069EC71E0C7010E94181D66E571E03F
:10080000C8010E94181DB701C8010E941D0B0E945B
:100810000B0BBC01CE01C6960E940F1DC8010E94A1
:10082000D21CC7010E94D21CBE016A5C7F4FCE0160
:1008300084960E944F0CCE01C6960E94D21CCE0117
:10084000C0960E94D21C8BE691E00E94C31AEEC4AF
:1008500068E272E0C7010E94D71C27E030E040E068
:1008600050E0BE01665D7F4FC8010E942D1DB7019B
:10087000C8010E94011CD82EC8010E94D21CC701C9
:100880000E94D21CDD2069F0BE01665D7F4FC80169
:100890000E940F1D84E892E00E94A51E6DE172E0A7
:1008A000A4CE61E172E0C8010E94D71CB801CE015C
:1008B0008A960E94011CD82EC8010E94D21CDD20FD
:1008C000B1F0BE01665D7F4FC8010E940F1D80E040
:1008D0000E94981A80E791E00E94C31A64EC79E0C4
:1008E00080E090E00E94811D67EA71E07ECE65E0C5
:1008F00072E0C7010E94D71C2BE030E040E050E0DE
:10090000BE01665D7F4FC8010E942D1DB701C80161
:100910000E94011CC82EC8010E94D21CC7010E945F
:10092000D21CCC2009F4C8C1BE01665D7F4FCE0148
:10093000C0960E940F1D20E130E04CE050E0BE0167
:10094000605D7F4FC8010E942D1D8D819E81892B86
:1009500059F065E771E089819A810E944726DD247C
:10096000D394892B09F0D12CC8010E94D21CDD2020
:1009700009F4BAC00E94AB1A8AE791E00E94C31A38
:1009800064EC79E080E090E00E94811D8091640336
:10099000882399F181E1F80111928A95E9F70E9483
:1009A000CB0D882309F48AC08FE791E00E94C31A17
:1009B000CE0103960E944D1F882309F47FC0C80111
:1009C0000E94401A882329F081E08A8384E891E01C
:1009D0000EC081E08A830E94512189839091640333
:1009E000891303C08F5F0E94981A89E891E00E94E2
:1009F000C31AC8010E947E2168C01092EE0181E0F6
:100A00008093EF018BE0E4EFF1E0DF011D928A9526
:100A1000E9F786E0EEE8F1E0A4EFB1E001900D9295
:100A20008A95E1F70E94BB1D6093E9017093EA018A
:100A30008093EB019093EC010E94BB1DC090E901F3
:100A4000D090EA01E090EB01F090EC01DC01CB01E9
:100A50008C199D09AE09BF0980339547A105B105E1
:100A600028F585EF92E00E94C510882329F385EFD1
:100A700092E00E94AB108823F9F28091F8029091E5
:100A8000F902A091FA02B091FB028093F0019093D9
:100A9000F101A093F201B093F3018EEE91E00E9478
:100AA0007E2181E00E94981AF12C02C0FF24F39469
:100AB00085EF92E00E940913FF2019F00E94A31A0B
:100AC00074C185E991E00E94C31A0E94A31A64ECE4
:100AD00079E080E090E00E94811D67EA71E0CE013C
:100AE000C6960E94D71C1BC260EF70E0C7010E942F
:100AF000D71C2EE030E04CE050E0BE01605D7F4F3F
:100B0000C8010E942D1DB701C8010E94011CD82EEA
:100B1000C8010E94D21CC7010E94D21CDD2089F1AD
:100B200081E1D8011D928A95E9F722E130E04FE09A
:100B300050E0BE01605D7F4FC7010E942D1D4AE05D
:100B400050E060E070E08A899B890E942C226983D2
:100B5000C8010E94281A882309F46CC48A81811173
:100B600069C481E08A83C8010E947E2184E891E003
:100B70000E94C31A64EC79E080E090E00E94811D3D
:100B800065C466EC70E0C7010E94D71C2FE030E01E
:100B90004CE050E0BE01605D7F4FC8010E942D1DFA
:100BA000B701C8010E94011CD82EC8010E94D21CA6
:100BB000C7010E94D21CDD2009F47BC081E1F8014D
:100BC00011928A95E9F72CA93DA940E150E0BE01B8
:100BD000605D7F4FCE014E960E942D1DBE01625E6C
:100BE0007F4FC7010E940F1D88EB90E00E94460BCB
:100BF0004E895F896A897B898AE492E00E94C70FE7
:100C000086EB90E00E94460B0E94420BC7010E94B7
:100C1000D21C8AA19BA183319105B1F5BE01625E10
:100C20007F4FC7010E940F1DBE016D5F7F4FC7013F
:100C30000E94A71FD82EC7010E94D21CDD2009F4F4
:100C40004BC1C8010E94401A882369F08A81811132
:100C500003C081E08A830AC482EA90E00E94460BC6
:100C60000E94420B06C40E945121898381E08A833D
:100C7000C8010E947E218981909164038913F9C380
:100C80008F5F0E94981AF5C3449768F080ED91E059
:100C90000E94A51E0E94A31A6EE870E0CE01C696BF
:100CA0000E94D71C27C10E94A31ABE01605D7F4F1E
:100CB00016C10E94A31A25C168EF71E0C7010E9406
:100CC000D71C2CE030E040E050E0BE01665D7F4F75
:100CD000C8010E942D1DB701C8010E94011CD82E19
:100CE000C8010E94D21CC7010E94D21CDD2009F459
:100CF00024C12EA53FA54DE050E0BE01665D7F4FAB
:100D0000CE01C0960E942D1D67E471E0C8010E94CB
:100D1000D71C24E030E040E050E0BE01605D7F4F32
:100D2000C7010E942D1DB801C7010E94011CD82EC9
:100D3000C7010E94D21CC8010E94D21CDD20D1F143
:100D40008AE791E00E94C31A64EC79E080E090E0C9
:100D50000E94811D81E1D8011D928A95E9F70E94C8
:100D6000CB0D882311F18FE791E00E94C31ACE01C9
:100D700003960E944D1F8823C1F0C8010E94401AAB
:100D8000882399F01A828AE991E00E94C31AC80167
:100D90000E947E2164EC79E080E090E00E94811D59
:100DA0008BE691E00E94C31A98CECE01C6960E94AF
:100DB000D41EB5C064E471E0C8010E94D71C22E0D3
:100DC00030E040E050E0BE01605D7F4FC7010E940F
:100DD0002D1DB801C7010E94011CD82EC7010E9419
:100DE000D21CC8010E94D21CDD2039F181E1F8013A
:100DF00011928A95E9F727E030E044E050E0BE0127
:100E0000605D7F4FC7010E942D1D4AE050E060E009
:100E100070E08A899B890E942C226983C8010E9404
:100E2000281A882309F415C38A81882309F411C379
:100E30001A82C8010E947E2109C363E171E0C801E2
:100E40000E94D71C23E030E040E050E0BE01605D2E
:100E50007F4FC7010E942D1DB801C7010E94011CD0
:100E6000D82EC7010E94D21CC8010E94D21CDD20CE
:100E700009F443C081E1D8011D928A95E9F72CA9B4
:100E80003DA944E050E0BE01605D7F4FCE014E962B
:100E90000E942D1D8AA19BA1BE01625E7F4F4397D8
:100EA000F1F4C7010E940F1DBE016D5F7F4FC701A6
:100EB0000E94A71FD82EC7010E94D21CDD2061F01E
:100EC000C8010E94401A882309F4D6C28A81882367
:100ED00009F4D2C21A82CAC2BE01625E7F4FC70144
:100EE0000E940F1DB701CE01C6960E94950FC70143
:100EF0000E94D21CCE014E9610C08BE691E00E945B
:100F0000C31ABE01605D7F4FC8010E940F1DB8016A
:100F1000CE01C6960E94950FC8010E94D21CBE0148
:100F20006A5C7F4FCE0184960E944F0CCE01C6961C
:100F30000E94D21CCE01C09664CB6BEE71E0C7015B
:100F40000E94D71C2CE030E040E050E0BE01665D1E
:100F50007F4FC8010E942D1DB701C8010E94011CCE
:100F6000D82EC8010E94D21CC7010E94D21CDD20CD
:100F7000A1F1BE01665D7F4FCE01C0960E940F1D9C
:100F800081E1F80111928A95E9F720E130E04DE026
:100F900050E0BE01605D7F4FCE014E960E942D1D38
:100FA0002CE130E041E150E0BE01605D7F4FC701C0
:100FB0000E942D1D4AE050E060E070E08E8D9F8D14
:100FC0000E942C226983C8010E94281A882309F4F0
:100FD00076C28A8181115BC272C260EE71E0C70184
:100FE0000E94D71C2AE030E040E050E0BE01665D80
:100FF0007F4FC8010E942D1DB701C8010E94011C2E
:10100000D82EC8010E94D21CC7010E94D21CDD202C
:1010100009F4E4C0BE01665D7F4FCE014E960E948A
:101020000F1DD09064038BEB91E00E94460B6D2D59
:1010300070E080E090E04AE00E941D0E83EB91E0BA
:101040000E94460B0E94420B80E891E00E94460BF2
:101050000E94420B312C75E0272E6E01F0E3CF0E7B
:10106000D11CEBEA4E2EE1E05E2E8091640338162F
:1010700008F0A4C021E1329EB00111246F5F7F4FC0
:1010800041E150E0C8010E945E23D601E22D1D928D
:10109000EA95E9F789811F928F938FE991E09F93F9
:1010A0008F931F9284E08F93DF92CF920E945726F6
:1010B0008EE791E00E94460BC6010E94300B8BE741
:1010C00091E00E94460B0FB6F894DEBF0FBECDBF75
:1010D0008A81811103C089E691E002C08FE691E028
:1010E0000E94460B88E791E00E94460B86E0D701FC
:1010F0001D928A95E9F73E01B3E06B0E711CA12C9D
:10110000B12CF30181913F011F928F9384EA91E00A
:101110009F938F931F922F92FF92EF920E945726D8
:101120000FB6F894DEBF0FBECDBFF3E0AF16B1042B
:1011300029F466E6862E61E0962E04C057E6852ED9
:1011400051E0952EC7010E94300BC4010E94460B4E
:101150002FEFA21AB20A84E0A816B10491F685E72F
:1011600091E00E94460B8CE0D7011D928A95E9F729
:101170005E01B7E0AB0EB11C42E0942EF501819107
:101180005F01282F082E000C330B3F938F935F9243
:101190004F921F929F92FF92EF920E945726C70193
:1011A0000E94300B0FB6F894DEBF0FBECDBFEA141D
:1011B000FB0421F70E94420B339457CF67EA71E09A
:1011C000C8010E94D71CB801CE0184960E944F0C22
:1011D000C8010E94D21CCE014E9613CA69ED71E07F
:1011E000C8010E94D71CB801CE018A960E94011C3A
:1011F000F82EC8010E94D21CFF2019F00C940000A8
:1012000015C06EEA71E0C8010E94181DBE01665D3E
:101210007F4FC8010E941D0B0E940B0BBC01CE0129
:1012200084960E94BB1CC8010E94D21CBE016C5D4A
:101230007F4FC8010E940F1D4D815E8169817A81B7
:101240008AE492E00E94C70F0E94420BC8010E94EC
:10125000D21CCE0184960E94D21CCE018A960E9496
:10126000D21C8091ED01882309F496C00E94BB1D19
:101270000091E9011091EA012091EB013091EC011C
:101280006B017C01C01AD10AE20AF30A95ECC91677
:1012900099E0D906E104F10408F453C0E09100019B
:1012A000E05DF0E0EE0FFF1FE556FD4F8591949154
:1012B00090649093060380930503A9E8CA16A3E1FE
:1012C000DA06E104F10408F43CC0E0910101E05DBC
:1012D000F0E0EE0FFF1FE556FD4F8591949190646D
:1012E0009093080380930703BDE4CB16BDE1DB06B2
:1012F000E104F10430F1E0910201E05DF0E0EE0F75
:10130000FF1FE556FD4F85919491906490930A03D9
:1013100080930903E1E1CE16E7E2DE06E104F10481
:1013200008F4D4C0E0910301E05DF0E0EE0FFF1F90
:10133000E556FD4F85919491906490930C038093B2
:101340000B030E94DE0AF1E1CF16F7E2DF06E104AB
:10135000F10410F144E050E066E670E080E091E0D6
:101360000E9440261092ED011092E8010E94A31AFB
:1013700088EC91E00E94460B0E94420B81E591E0CF
:101380000E94C31A64EC79E080E090E00E94811D25
:101390008BE691E00E94C31A8091E801882309F44A
:1013A00098C085EF92E00E94C510882309F491C08F
:1013B00085EF92E00E94AB10882309F48AC0CE0129
:1013C000019621E1DC011D922A95E9F74091F8028E
:1013D0005091F9026091FA027091FB024B835C8399
:1013E0006D837E830E94401A882309F472C089812C
:1013F000882309F46EC08A81882309F46AC083ECCB
:1014000091E00E94460B0E94420B0E94B51A109276
:10141000ED011092E8018CE491E00E94C31A64ECA3
:1014200079E080E090E00E94811D8BE691E00E94CF
:10143000C31A4FC08AEC90E00E94460B0E94420BF8
:10144000CE01C6960E94D41EC70167CD67EA71E03F
:1014500008C082E291E00E94460B0E94420B67E1C5
:1014600071E0CE01C6960E94D71CEECFC8010E9443
:101470007E2167EA71E012CC83EF90E00E94460B78
:101480000E94420BCE01C6960E94D41E33CDCE01DF
:1014900007962BE0FC0111922A95E9F74E895F89A6
:1014A0004C30510510F04BE050E06A897B890E9476
:1014B0003726C8010E947E2167EA71E002C06CE411
:1014C00071E0CE01C6960E94D71C11CD0E94DE0AA3
:1014D00063CFEB960FB6F894DEBF0FBECDBFDF91A2
:1014E000CF911F910F91FF90EF90DF90CF90BF9021
:1014F000AF909F908F907F906F905F904F903F90B4
:101500002F90089530914902313208F04BC08091FC
:1015100025028111FCCF9091480222E02093250200
:1015200021E0209324022FEF209323021092220225
:1015300030932102E8E2F2E0A1E0B2E020E03217CD
:1015400021F041914D932F5FFACF1092000220912C
:101550000002990F922B909300029091FF0191301D
:1015600061F41092FF01909100029093BB00909162
:10157000BC0093FDF8CF95EC01C095EE9093BC00B4
:10158000909125029230E1F3909123029F3F79F0F0
:1015900080912302803241F080912302803331F028
:1015A00084E005C081E003C082E001C083E01092C6
:1015B0002702109249021092260208950F931F935A
:1015C000CF93DF938091150391E09093260280934F
:1015D0004802109227021092490260E087EE92E0E2
:1015E0000E947C10C5E0D3E08E01688187EE92E016
:1015F0000E947C102296F801618187EE92E00E94A1
:101600007C10F3E0C531DF0779F7DF91CF911F91AF
:101610000F910C94820ACF93DF93EC0141E050E0EC
:1016200065EC71E00E945A1C811103C0CE010E943A
:10163000881CCE01DF91CF910895CF93DF93EC0109
:10164000FB0144815581608171810E945A1C811186
:1016500003C0CE010E94881CCE01DF91CF91089576
:10166000009769F0FC0101900020E9F73197AF0184
:10167000481B590BBC018AE492E00C94C70F80E030
:1016800090E0089587EC91E00C94300B0F931F933A
:10169000CF93DF938C01C0E0D0E0F801EC0FFD1F89
:1016A0006491662341F08AE492E00E94921B892BA8
:1016B00011F02196F2CFCE01DF91CF911F910F91C2
:1016C0000895CF93DF9361E0809103030E94691E28
:1016D00061E0809103030E943A1E809104038F3FD2
:1016E00041F44FE062E085EF92E00E944715C3E0CD
:1016F00025C060E00E94691E2091040330E0F901DA
:10170000EF57FD4F8491F901E359FD4FD491F90151
:10171000E75AFD4FC491CC23F9F081110E94111EAC
:10172000EC2FF0E0EE0FFF1FE15BFD4FA591B491B0
:10173000EC91ED2389F0D5CFC15019F162E370E04F
:1017400080E090E00E94811D62E085EF92E00E94BF
:10175000291584FF16C0F0CF61E0809104030E9438
:10176000691E60E0809104030E943A1E61E080914E
:1017700004030E943A1E62E370E080E090E00E9461
:10178000811D40E064E285EF92E00E94471540E051
:1017900066E285EF92E00E94471546E268E485EF35
:1017A00092E00E94471540E864E585EF92E00E94D0
:1017B000471549EA66E585EF92E00E94471543E048
:1017C00068E585EF92E00E94471548EE6AE585EFEF
:1017D00092E00E94471540E46AE285EF92E00E94A1
:1017E00047154DE362E285EF92E00E94471568E2FB
:1017F00085EF92E00E942915982F9370933049F05D
:10180000482F436068E285EF92E0DF91CF910C941E
:101810004715DF91CF91089587E480937C008091F4
:101820007A00806480937A0080917A0086FDFCCFF4
:10183000809178002091790090E0922B0895EF92AA
:10184000FF920F931F93CF93DF936115710511F4EE
:1018500080E01EC08B01EC01CB010E945223009757
:10186000B1F02C813D817C01E20EF31EB701CE0167
:101870000E94331C882361F3288139818C819D81EA
:10188000B801820F931F0E944B23FD82EC8281E0FE
:10189000DF91CF911F910F91FF90EF9008950F93DB
:1018A0001F93CF93DF938C01EB01FC018081918129
:1018B0000097B1F0688179816115710579F04281F5
:1018C00053812C813D814217530740F00E945026DE
:1018D0008C819D81F8019583848313C00E94D62456
:1018E00088819981F801918380838A819B81938388
:1018F00082838C819D8195838483198218821B82C7
:101900001A821D821C82DF91CF911F910F91089541
:10191000DF92EF92FF920F931F93CF93DF938C018F
:10192000F62ED42EE52E83E590E00E94261560E089
:10193000F80186850E943A1E82E10E94E714CD2DAF
:10194000DE2DCE018F0D911D7C01EC16FD0621F0E0
:1019500089910E94E714F9CF61E0F80186850E9421
:101960003A1EDF91CF911F910F91FF90EF90DF9082
:101970000C94DB144F925F926F927F928F929F92A2
:10198000AF92BF92CF92DF92EF92FF920F931F938D
:10199000CF93DF9300D0CDB7DEB74C012B01D42E0F
:1019A0003901E114F10419F0F701408101C040E070
:1019B000B42EF0E1CF9EB00C112440E062E0C401EF
:1019C0000E9447154FE768E0C4010E94471540E8B0
:1019D00064E1C4010E944715A2016D2DC4010E945B
:1019E000880C4B2D6AE1C4010E9447154CE062E06F
:1019F000C4010E9447156AE1C4010E942915482FBD
:101A000040686AE1C4010E94471580ED482E87E0D6
:101A1000582E68E0C4010E942915982F907341F454
:101A200080FD04C081E0481A510899F783E0A0C006
:101A30006CE0C4010E942915D82E837109F095C06D
:101A40006114710409F45AC00115110509F456C056
:101A500064E1C4010E942915B82EF80180818B151C
:101A600008F47DC0B082BB20F1F183E590E00E94D4
:101A7000261560E0F40186850E943A1EBA9482E938
:101A80000E94E714CC20A9F08FEF90E02C0101C058
:101A9000440CCA94EAF782E90E94E714242D2095A9
:101AA000F301908192238421892B8083CC24C394D9
:101AB00001C0C12C4C2C512C460C571CCB1438F4B3
:101AC00082E90E94E714F2018083C394F3CF80E09F
:101AD0000E94E714F201808361E0F40186850E9490
:101AE0003A1E0E94DB1468E1C4010E942915877028
:101AF000E114F10421F0F701808301C080E0D3FC00
:101B000030C06114710479F10115110561F1AA2049
:101B100051F1F8014081413021F4843041F58FEFDB
:101B200027C0423020F1811122C042509E012F5F18
:101B30003F4FB301C4010E94BD12811119C0F801C9
:101B40008081680E711CF30132979081898198130E
:101B50000EC0319690818A81981309C004C084E038
:101B600007C082E005C080E003C081E001C087E0DB
:101B70000F900F90DF91CF911F910F91FF90EF90F9
:101B8000DF90CF90BF90AF909F908F907F906F909D
:101B90005F904F900895CF92DF92EF92FF92CF9394
:101BA000DF930E94BB1D6B017C0110921A03D1E0F0
:101BB0000E94BB1DDC01CB018C199D09AE09BF0938
:101BC00080339547A105B10578F585EF92E00E9435
:101BD000C510882369F385EF92E00E94AB10C82FEF
:101BE000882331F344E050E068EF72E080EF91E049
:101BF0000E942A26892B29F485EF92E00E9409137E
:101C000014C08091F8029091F902A091FA02B0916B
:101C1000FB028093160390931703A0931803B093CD
:101C20001903D0931A03C4CFC0E08C2FDF91CF915A
:101C3000FF90EF90DF90CF9008958F929F92AF9298
:101C4000BF920F931F93CF93DF93CDB7DEB7A197CA
:101C50000FB6F894DEBF0FBECDBF19A2423008F414
:101C60004AE08E010F5D1F4F842E912CA12CB12CC8
:101C7000A50194010E949E23E62FB901CA010150DB
:101C80001109EA3014F4E05D01C0E95CD801EC937D
:101C9000232B242B252B61F7C8010E94300BA19622
:101CA0000FB6F894DEBF0FBECDBFDF91CF911F916D
:101CB0000F91BF90AF909F908F9008950F931F93B7
:101CC0000E94BB1D60935202709353028093540292
:101CD000909355028AE492E00E94101B97FF1FC068
:101CE0000E94BB1D00915202109153022091540298
:101CF00030915502DC01CB01801B910BA20BB30B81
:101D000000914E0210914F022091500230915102E9
:101D100080179107A207B307E8F28FEF9FEF1F919B
:101D20000F9108953F924F925F926F927F928F92A0
:101D30009F92AF92BF92CF92DF92EF92FF920F935A
:101D40001F93CF93DF93CDB7DEB72C970FB6F894E0
:101D5000DEBF0FBECDBF5C01DC015B968D909C9019
:101D60005C971696CD90DD90ED90FC901997C1147C
:101D7000D104E104F10439F0BFEFCB1ADB0AEB0A1E
:101D8000FB0A312C07C0F401C080D180E280F380CF
:101D900033243394F40181859285A385B4859C0115
:101DA000AD012F5F3F4F4F4F5F4F29873A874B87DA
:101DB0005C87260137011D821E821F821886F4016E
:101DC00081859285A385B4852D813E814F8158857B
:101DD000281739074A075B0708F063C089859A8589
:101DE000AB85BC858C159D05AE05BF0550F482E022
:101DF000C82ED12CE12CF12C92E0492E512C612CD3
:101E0000712C9E012F5F3F4FB701A601C4010E94B4
:101E1000BE17882309F445C089819A81AB81BC81B2
:101E2000892B8A2B8B2B41F0260137019FEF491A12
:101E3000590A690A790A05C0C414D504E604F704EE
:101E400091F02D813E814F8158852F5F3F4F4F4F3D
:101E50005F4F2D833E834F8358873FEFC31AD30ACA
:101E6000E30AF30AACCF0FEF1FEF2FEF3FE0B30110
:101E7000A201C4010E941D17882399F0D50116966E
:101E80004D915D916D917C911997411551056105B9
:101E9000710549F093018201C4010E941D1781114F
:101EA00002C080E02AC0D50116964D925D926D92D7
:101EB0007C921997332051F0D301C2010196A11DE4
:101EC000B11DF40180839183A283B383F5018789D7
:101ED000908DA18DB28D892B8A2B8B2B69F4D50126
:101EE00057964D925D926D927C925A9714968C9172
:101EF0001497806814968C9381E02C960FB6F89412
:101F0000DEBF0FBECDBFDF91CF911F910F91FF902C
:101F1000EF90DF90CF90BF90AF909F908F907F9089
:101F20006F905F904F903F900895EF92FF920F93C4
:101F30001F93CF93DF9300D000D000D0CDB7DEB792
:101F40008C017B016AEC71E0CE0101960E94181DA4
:101F5000B701CE0101960E941D0B0E940B0BBC0124
:101F6000C8010E940F1DCE0101960E94D21CC8011B
:101F700026960FB6F894DEBF0FBECDBFDF91CF918E
:101F80001F910F91FF90EF90089508950895CF92BB
:101F9000DF92EF92FF920F931F93CF93DF936C0129
:101FA0007A018B01C0E0D0E0CE15DF0581F0D801C9
:101FB0006D918D01D601ED91FC910190F081E02DA4
:101FC000C6010995892B11F02196EECF7E01C7013C
:101FD000DF91CF911F910F91FF90EF90DF90CF9005
:101FE00008950895E091D0038091CF03E81730F46D
:101FF000F0E0E855FC4F808190E008958FEF9FEF6F
:1020000008959091D0038091CF03981750F4E92F51
:10201000F0E0E855FC4F208130E09F5F9093D003C3
:1020200002C02FEF3FEFC90108958091CF0390E0E8
:102030002091D003821B9109089585ED8093BC0007
:102040008091BC0084FDFCCF109225020895409140
:102050008503262F30E0240F311D21323105DCF4B9
:10206000209125022430C9F4FC0180E090E086171D
:1020700058F4309185032191DC01AB59BC4FA30F7B
:10208000B11D2C930196F3CF80918503680F609367
:10209000850380E0089581E0089582E00895CF925D
:1020A000DF92EF92FF920F931F93CF93DF937C0108
:1020B000CB018A0120912602222389F0EB016B01DA
:1020C000C40ED51ECC15DD0569F06991D701ED91DF
:1020D000FC910190F081E02DC7010995F3CF642FA9
:1020E0000E942710C801DF91CF911F910F91FF909F
:1020F000EF90DF90CF900895CF93DF931F92CDB7ED
:10210000DEB76983209126022223D1F02091490273
:10211000203240F021E030E0FC013383228380E074
:1021200090E015C080912702E82FF0E0E85DFD4FB8
:10213000998190838F5F809327028093490205C025
:1021400061E0CE0101960E94271081E090E00F909F
:10215000DF91CF910895BC016E5F7F4FDC01ED915F
:10216000FC910190F081E02D40E0099591E0811112
:1021700090E0892F08958AE492E00E94321B21E0CA
:10218000892B09F420E0822F08958F929F92AF92BD
:10219000CF92EF92FF920F931F93CF93DF9300D0D4
:1021A00000D01F92CDB7DEB74C0182E08D8340E0B6
:1021B00064E2C4010E94471540E066E2C4010E9447
:1021C000471546E268E4C4010E94471586E28B8306
:1021D0008D81823040F16CE1C4010E942915482FA5
:1021E0004F776CE1C4010E94471587E08C83A12CD6
:1021F000C12CCE0104967C018E010B5F1F4F9E0106
:102200002F5F3F4F41E0BE016D5F7F4FC4010E94D1
:10221000BA0C81110BC08D81823039F481E09C8130
:10222000911104C008C084E001C081E091E08230D7
:1022300019F090E001C091E0892F0F900F900F905E
:102240000F900F90DF91CF911F910F91FF90EF9022
:10225000CF90AF909F908F9008951F920F920FB6DE
:102260000F9211242F933F934F935F936F937F931C
:102270008F939F93AF93BF93EF93FF938AE492E082
:102280000E94701BFF91EF91BF91AF919F918F9131
:102290007F916F915F914F913F912F910F900FBE62
:1022A0000F901F9018951F920F920FB60F92112446
:1022B0002F938F939F93EF93FF93E0915A02F091A6
:1022C0005B028081E0916002F091610282FD12C0A8
:1022D0009081809163028F5F8F73209164028217D7
:1022E00051F0E0916302F0E0E65BFD4F958F809343
:1022F000630201C08081FF91EF919F918F912F9197
:102300000F900FBE0F901F9018951F920F920FB64F
:102310000F9211240F900FBE0F901F9018951F92CF
:102320000F920FB60F9211242F933F934F935F9309
:102330006F937F938F939F93AF93BF93EF93FF938D
:102340008091B900887F803609F49CC068F5883296
:1023500009F45BC090F4803109F454C038F4882348
:1023600009F4F6C0883009F44DC0F6C0883109F48C
:102370004CC0803209F45DC0EFC0803409F468C0FD
:1023800048F4803309F455C0883309F0E5C08093E0
:102390002302D8C0803509F44FC0883509F45DC0E8
:1023A000883409F0D9C0D6C0883909F4C7C0A8F468
:1023B000883709F467C038F4883609F463C0803779
:1023C00009F460C0C9C0883809F4B8C0803909F47C
:1023D0005FC0803809F0C0C05BC0803B09F486C094
:1023E00038F4803A09F466C0883A09F47FC0B4C072
:1023F000803C09F4A7C0883C09F4A4C0883B09F4D8
:102400008AC0AAC08091000210C0909122028091DF
:102410002102981770F5E091220281E08E0F8093DF
:102420002202F0E0EF5FFD4F80818093BB0085ECDE
:1024300086C0809323028EC0E091220281E08E0F3D
:10244000809322028091BB00F0E0EF5FFD4F80831C
:1024500090912202809121026EC0E091220281E0DF
:102460008E0F809322028091BB00F0E0EF5FFD4F62
:1024700080838091240281116DC081E08093FF01EF
:1024800084EA61C083E0809325021092A703CFCF36
:102490008091A703803208F051C0E091A70381E04A
:1024A0008E0F8093A7038091BB00F0E0E957FC4FAB
:1024B0008083BDCF85EC8093BC0010922502809173
:1024C000A703803230F4E091A703F0E0E957FC4F16
:1024D00010826091A70370E0E091CB03F091CC03F0
:1024E00087E893E009951092A70336C084E08093B3
:1024F00025021092860310928503E091CD03F0919E
:10250000CE03099580918503811105C081E08093F8
:10251000850310926503E091860381E08E0F80931E
:102520008603F0E0EB59FC4F80818093BB009091D3
:10253000860380918503981708F479CF85E8809306
:10254000BC000AC085EC8093BC001092250204C038
:10255000109223020E941D10FF91EF91BF91AF9145
:102560009F918F917F916F915F914F913F912F91AB
:102570000F900FBE0F901F901895CF92DF92EF92A1
:10258000FF920F931F93CF93DF93EC016B01142FF6
:10259000790140E062E00E94471544E06AE0CE0124
:1025A0000E94471540E864E1CE010E944715A6014C
:1025B000612FCE010E94880C43E062E0CE010E94B0
:1025C000471508E813E16AE0CE010E94291582FF51
:1025D00013C040E062E0CE010E94471564E4CE01E2
:1025E0000E942915F701808362E4CE010E9429151B
:1025F000F701818380E004C00150110921F783E0D5
:10260000DF91CF911F910F91FF90EF90DF90CF90CE
:1026100008958F929F92AF92CF92EF92FF920F9375
:102620001F93CF93DF9300D000D0CDB7DEB74C011E
:1026300080E589831A829E012D5F3F4F42E0BE01F3
:102640006F5F7F4FC4010E94BD12811116C0A12C83
:10265000C12CE12CF12C00E010E020E030E044E05F
:10266000BE016F5F7F4FC4010E94BA0C833021F01E
:10267000811103C081E001C080E00F900F900F90A6
:102680000F90DF91CF911F910F91FF90EF90CF901E
:10269000AF909F908F9008952F923F924F925F92AC
:1026A0006F927F928F929F92AF92BF92CF92DF9262
:1026B000EF92FF920F931F93CF93DF93CDB7DEB7C7
:1026C0002C970FB6F894DEBF0FBECDBF413508F092
:1026D0000BC1342E3B014C016CE10E942915482F9F
:1026E0004F776CE1C4010E9447152224239432E005
:1026F000231691F083E02816E1F091E02912F6C04C
:1027000083E989833320D1F081E0F3019081953012
:1027100008F480E0B12C17C0F5E9F983332081F08B
:1027200081E0F3019081983008F480E043E0B42E1A
:102730000AC087E9898336E0B32E04C0B12C02C0F9
:1027400023E0B22E80E0D32CF8E0BF9ED0181124F5
:10275000D7FCD12C882321F098E89B8333E001C07B
:1027600032E021E09D2D977009F420E09D2D959594
:1027700095959595290F31F4882309F492C038E096
:10278000D30E8FC0811102C094E001C093E02917DD
:1027900008F4922FEB2DF0E03196E60DF71D232F74
:1027A0004191A1E0B0E0AC0FBD1FA20FB11D4C9351
:1027B0002F5F422F431B491798F3DECF8111DEC0F4
:1027C0009FE19D150CF494C080E2D82E90E79A8387
:1027D0009B818C8189279D8189279E8189278F8371
:1027E0009E01285F3F4F47E0BE016F5F7F4FC401EE
:1027F0000E94BD128111A3C01A86E3E0EB87CE01CF
:1028000007962C0199E09C87CA844C2D4295407F05
:102810004C0D6AE1C4010E944715A12CCE010A9615
:102820007C018E01055F1F4F92014C85BE016F5FD9
:102830007F4FC4010E94BA0C182F823009F0BECF1E
:102840006CE1C4010E94291585FD98C08F7109F4BF
:1028500080E2282F30E04D2DDD0C550B4217530739
:102860000CF044C0D82E85958595859591E0980FFC
:10287000422F477081E009F480E0890FE1E0F0E049
:10288000EC0FFD1FE80FF11D215031092770332790
:1028900081E090E001C0880F2A95EAF79081892BAA
:1028A00080838FE18D150CF491CF9D2D97709A87C1
:1028B0008D2D8595859585958E5F292FE0E18E9FDD
:1028C000200D11242A8321E0911101C020E0280F5E
:1028D0002C8744244394512C4C0E5D1E480E511CF1
:1028E000F9E0F81BFB8790CF16E048C015E046C022
:1028F0008B81883809F43FC082E094E0EB2DF0E052
:102900003196E60DF71D980FA1E0B0E0AC0FBD1FAA
:10291000A80FB11D2C9121938F5F8913F5CF8B8563
:10292000833029F58A85811122C09E012D5F3F4F9A
:1029300041E0B201C4010E94BD12882311F0182F9A
:102940001DC09B81F2018181981313C09C818281FB
:1029500098130FC0808182FF02C02394C8CEF30178
:102960008387822D880F820D8F5F808307C011E0DF
:1029700005C017E003C083E093E0C0CF812F2C9601
:102980000FB6F894DEBF0FBECDBFDF91CF911F9180
:102990000F91FF90EF90DF90CF90BF90AF909F90FE
:1029A0008F907F906F905F904F903F902F90089501
:1029B00080E090E00895089561E0FC0184810E9428
:1029C0003A1E8091D10381111092D10308958EBDDA
:1029D00000000DB407FEFDCF8EB508958FEF0C9467
:1029E000E7140F931F93CF93DF93EB010E94BB1D5E
:1029F0008B010E94EE148F3F49F00E94BB1D601BAB
:102A0000710B6C177D07A8F380E001C081E0DF91B6
:102A1000CF911F910F910895CF93DF93EC018E8199
:102A2000882389F08F8198859C012F5F3F4F3887DD
:102A30002F838230924018F40E94EE14F3CFCE011F
:102A40000E94DC141E82DF91CF9108958CBD9DBD44
:102A500008951F93CF93DF93EC01162F83E590E049
:102A60000E94261560E08E850E943A1E812F8068A4
:102A70000E94E71480E00E94E714182F61E08E8521
:102A80000E943A1E812FDF91CF911F9108950F93DD
:102A90001F93CF93DF93EC01062F142F83E590E073
:102AA0000E94261560E08E850E943A1E802F0E94AB
:102AB000E714812F0E94E71461E08E85DF91CF91AA
:102AC0001F910F910C943A1E8F929F92AF92BF92DA
:102AD000FF920F931F93CF93DF93EC01F62E4901E2
:102AE0005A010E940C158091D103811109C081E027
:102AF0008093D1038091F3029091F4020E942615F5
:102B000060E08C810E943A1E6CE271E0CE010E946E
:102B1000F1148F2D80640E94E71408E110E0D501C4
:102B2000C401002E04C0B695A795979587950A9481
:102B3000D2F70E94E71408501109083F8FEF1807D9
:102B400071F7FF2029F088E0F81204C087E803C07D
:102B500085E901C08FEF0E94E71410E00E94EE1497
:102B60008A8787FF04C01F3F11F01F5FF7CFDF91F7
:102B7000CF911F910F91FF90BF90AF909F908F903A
:102B80000895EF92FF920F931F93CF93DF93EC0181
:102B90007901411551056105710511F482E13CC0CF
:102BA0008B85833039F089E0440F551F661F771FEE
:102BB0008A95D1F79A01AB0168E1CE010E946415B4
:102BC000882311F084E028C08EEF0E94E71487016B
:102BD0008EEFF81AF80181918F010E94E714E01638
:102BE000F106C1F78FEF0E94E7148FEF0E94E71400
:102BF0000E94EE148A878F71853031F081E18D83D8
:102C0000CE010E94DC1409C068E572E0CE010E948A
:102C1000F114811107C085E18D83CE010E94DC147F
:102C200080E014C020E030E0A9016DE0CE010E94F8
:102C30006415811109C00E94EE14811105C0CE01F6
:102C40000E94DC1481E002C084E1E6CFDF91CF91E5
:102C50001F910F91FF90EF9008958091D2038823E8
:102C600089F1409104015091050160910601709134
:102C7000070127ED33E080E090E00E94C11581114B
:102C800002C080E008954091D3035091D403609135
:102C9000D5037091D603411551056105710581F089
:102CA00027ED33E080E090E00E94C115882349F3CE
:102CB0001092D3031092D4031092D5031092D6032E
:102CC0001092D20381E00895AF92BF92CF92DF922B
:102CD000EF92FF921F93CF93DF936B017C01142F30
:102CE0008091040190910501A0910601B091070126
:102CF0008C159D05AE05BF0509F48FC00E942D16E9
:102D0000882309F490C0809106008823A1F0809167
:102D1000000090910100A0910200B0910300C8163C
:102D2000D906EA06FB0639F4809107009091080065
:102D3000892B09F443C0C0920000D0920100E092B8
:102D40000200F092030080910B00A70196018330EE
:102D500039F099E0220F331F441F551F9A95D1F780
:102D600061E180E090E00E946415882321F083E017
:102D70008093050044C00E94BB1DEB010E94EE142D
:102D800080930A008F3F49F40E94BB1D6C1B7D0B92
:102D90006D32714098F38FE003C08E3F41F08DE0BB
:102DA0008093050080E090E00E94DC1428C010921F
:102DB00008001092070081E080930600C7EDD3E081
:102DC00087EDA82E85E0B82E0E94EE148993AC16EC
:102DD000BD06D1F780910700909108009E5F909307
:102DE00008008093070020910900222319F0811523
:102DF000924058F080E090E00E940C1506C080E000
:102E000090E00E94DC1480E00EC0C0920401D092D9
:102E10000501E0920601F09207014091D203412B97
:102E20004093D20381E0DF91CF911F91FF90EF900B
:102E3000DF90CF90BF90AF9008954F925F926F92C6
:102E40007F928F929F92AF92BF92CF92DF92EF923A
:102E5000FF920F931F93CF93DF93EC014230510504
:102E60006105710510F480E078C089859A85AB858D
:102E7000BC850196A11DB11D84179507A607B7074C
:102E800090F3CB88DC88ED88FE888F89803129F427
:102E9000BB27A72F962F852F09C0DB01CA01E7E0CA
:102EA000B695A79597958795EA95D1F74801590169
:102EB0002A013B01C80ED91EEA1EFB1E80910401A7
:102EC00090910501A0910601B0910701C816D9069D
:102ED000EA06FB0681F48F898031A9F4B301A201CF
:102EE000552766277727440F551FFA01E952FC4FF3
:102EF0009182808219C040E0C701B6010E94641629
:102F00008111E9CFB0CFB301A2014F7755276627D2
:102F10007727440F551F440F551FFA01E952FC4F04
:102F200080829182A282B3828091D2038160809359
:102F3000D2038A89823080F08D819E81AF81B885ED
:102F4000C80ED91EEA1EFB1EC092D303D092D40332
:102F5000E092D503F092D60381E0DF91CF911F91EB
:102F60000F91FF90EF90DF90CF90BF90AF909F9028
:102F70008F907F906F905F904F9008958F929F9267
:102F8000AF92BF92CF92DF92EF92FF920F931F9377
:102F9000CF93DF93FC0181859285A385B48501964B
:102FA000A11DB11D84179507A607B70710F480E08F
:102FB0005BC083889488A588B6888789803129F486
:102FC000BB27A72F962F852F09C0DB01CA01C7E0B9
:102FD000B695A79597958795CA95D1F7E9016A01A6
:102FE0007B018F01BC01CD01680D791D8A1D9B1DE0
:102FF0008090040190900501A0900601B090070117
:10300000681579058A059B0591F4F8018789803157
:10301000A1F4DD24EE24FF24C601880F991FFC01D2
:10302000E952FC4F80819181A0E0B0E018C040E0FF
:103030000E9464168111E9CFBACFE894C7F8DD2465
:10304000EE24FF24C601880F991F880F991FFC01E9
:10305000E952FC4F80819181A281B381BF70888346
:103060009983AA83BB8381E0DF91CF911F910F9158
:10307000FF90EF90DF90CF90BF90AF909F908F9098
:1030800008954F925F926F927F92AF92BF92CF92CC
:10309000DF92EF92FF920F931F93CF93DF9300D0B5
:1030A00000D01F92CDB7DEB78C016D83DC01159681
:1030B0008C911597813009F054C014968C9181FF42
:1030C00050C057C0258530E0275F3F4F2A013B01A4
:1030D000B1E04B1A510861087108022E04C07694C1
:1030E0006794579447940A94D2F7D701C601019781
:1030F000A109B10904C0B695A795979587952A951A
:10310000D2F784159505A605B70508F076C0F80135
:103110004789508D618D728D468357836087718793
:103120002C013D015801F6E0AF0EB11C41145104D1
:103130006104710409F46BC0D80116964D915D913C
:103140006D917C91199795015B968D919C915C97FF
:103150000E94BE17B1E04B1A510861087108811135
:10316000E5CF81E090E0F8019383828380E090E0F6
:103170005BC182FF0EC0F801428553856485758569
:10318000C388D488E588F6884C155D056E057F05F3
:10319000E9F4D8011A964D915D916D917C911D973E
:1031A0005B96ED91FC915C97948191506A017B0153
:1031B00089E0F694E794D794C7948A95D1F79C2137
:1031C0007A01B1E0FB22911173C027C0D801038CB2
:1031D000F48DE02DC114D104E104F10409F072CFA3
:1031E00016961D921D921D921C9219971A961D9269
:1031F0001D921D921C921D9714C0452B462B472BE8
:1032000009F485CF84199509A609B70989CFF80172
:10321000C286D386E486F586BCCFE114F10409F0BA
:1032200047C0D80116964D915D916D917C9119978B
:10323000411551056105710559F457968D919D9180
:103240000D90BC91A02D0097A105B10549F522C0B4
:103250009E012F5F3F4FCF010E94BE17882309F4C4
:1032600085CF89819A81AB81BC81F801238D348D12
:10327000F9012789203129F448EF5FEF60E070E021
:1032800004C048EF5FEF6FEF7FE084179507A60754
:10329000B70730F0C8010E94920E811106C061CFBD
:1032A000F80186839783A087B187E12CF12C90E009
:1032B000D8015B96ED91FC915C9716964D905D90D0
:1032C0006D907C901997B2E04B1A51086108710813
:1032D000058404C0440C551C661C771C0A94D2F764
:1032E0004685578560897189440E551E661E771E76
:1032F000490E511C611C711CE114F10409F5F8011F
:10330000428553856485758583899489A589B689A5
:10331000481759076A077B0798F00E942D168823E3
:1033200009F41FCF409204015092050160920601FA
:10333000709207018091D20381608093D20308C00C
:1033400041E0C301B2010E946416882309F409CF49
:10335000F701E952FC4F8D818083F80182859385C6
:10336000A485B5850196A11DB11D82879387A48789
:10337000B5874389548965897689481759076A074B
:103380007B0738F4838B948BA58BB68B8481806804
:103390008483D80114968C9183FD03C081E090E072
:1033A00043C0F8019581992309F4DBCE87FF37C02C
:1033B000668577858089918941E00E94641688231B
:1033C00009F4CFCED8015296EC91B0E2EB9FF00118
:1033D0001124E952FC4F309709F4C3CED801159659
:1033E0008C911597823050F453964D915D916D916B
:1033F0007C915697448F558F668F778FD80157965B
:103400004D915D916D917C915A97538F428F758B41
:10341000648B14968C9114978F7714968C930E94DA
:103420002D168111BBCF9DCE0F900F900F900F9056
:103430000F90DF91CF911F910F91FF90EF90DF9050
:10344000CF90BF90AF907F906F905F904F90089516
:103450001F93CF93DF93EC01188181E1189FB00196
:1034600011246F5F7F4F41E150E0CE010E945E2347
:1034700081E09881911380E0DF91CF911F910895B1
:103480008F929F92AF92BF92CF92DF92FF920F9353
:103490001F93CF93DF93CDB7DEB761970FB6F89444
:1034A000DEBF0FBECDBF5C01CE0101966C0181E194
:1034B000F60111928A95E9F700E010E04501F2E08B
:1034C0008F0E911C8091640390E008171907C4F4D3
:1034D0000983C6010E94281AF82E882399F044E037
:1034E00050E0B401CE0103960E942A26892B51F4A4
:1034F00081E1F601D50101900D928A95E1F705C0B1
:10350000F12C03C00F5F1F4FDDCF8F2D61960FB6DB
:10351000F894DEBF0FBECDBFDF91CF911F910F9109
:10352000FF90DF90CF90BF90AF909F908F900895C5
:10353000CF93C82F682F80E090E00E948023C09333
:103540006403CF91089561E087E00E94691E60E006
:1035500087E00C943A1E61E087E00E94691E61E0FA
:1035600087E00E943A1E0C94610B61E083E00E94A8
:103570003A1E64EF71E080E090E00E94811D60E0FF
:1035800083E00C943A1EEF92FF920F931F93CF9318
:10359000DF93EC01E12C0BED12E033E0F32EE88138
:1035A000F0E0EE0FFF1FE556FD4F85919491EF2D52
:1035B000EE0FFF0BEB5FFC4F91838083F801859149
:1035C0009491E1E0EF0DF0E0EE0FFF1FEB5FFC4F99
:1035D000918380830E94DE0A64E670E080E090E0E0
:1035E0000E94811DFA94FE14D4F6E394219684E09F
:1035F000E812D3CFDF91CF911F910F91FF90EF9001
:103600000895FC01538D448D252F30E0842F90E0E8
:10361000821B930B541710F0CF96089501970895CD
:10362000FC01918D828D981761F0828DDF01A80FCA
:10363000B11D5D968C91928D9F5F9F73928F90E0EC
:1036400008958FEF9FEF0895FC01918D828D98175B
:1036500031F0828DE80FF11D858D90E008958FEF98
:103660009FEF0895FC01918D228D892F90E0805C61
:103670009F4F821B91098F739927089580E090E0F6
:10368000892B29F00E94BB1081110C940000089531
:1036900008953FB7F8948091DC059091DD05A091E5
:1036A000DE05B091DF0526B5A89B05C02F3F19F0B8
:1036B0000196A11DB11D3FBFBA2FA92F982F8827B2
:1036C000820F911DA11DB11DBC01CD0143E0660F0C
:1036D000771F881F991F4A95D1F708950E942526C4
:1036E000FC01848DDF01A80FB11DA35ABF4F2C919F
:1036F000848D90E001968F739927848FA689B7896E
:103700002C93A089B1898C91837080648C93938D64
:10371000848D981306C00288F389E02D80818F7D07
:1037200080830895EF92FF920F931F93CF93DF93BF
:10373000EC0181E0888F9B8D8C8D981305C0E88902
:10374000F989808185FD26C0F62E0B8D10E00F5F74
:103750001F4F0F731127E02E8C8DE8120CC00FB68F
:1037600007FCFACFE889F989808185FFF5CFCE0182
:103770000E94701BF1CF8B8DFE01E80FF11DE35A03
:10378000FF4FF0829FB7F8940B8FEA89FB89808105
:1037900080620AC09FB7F894EE89FF896083E88948
:1037A000F98980818370806480839FBF81E090E08D
:1037B000DF91CF911F910F91FF90EF900895CF93DC
:1037C000DF93EC01888D8823C9F0EA89FB89808129
:1037D00085FD05C0A889B9898C9186FD0FC00FB6FB
:1037E00007FCF5CF808185FFF2CFA889B9898C913C
:1037F00085FFEDCFCE010E94701BE7CFDF91CF9107
:103800000895FC0124813581FB01448155812417F1
:10381000350721F5FC0180819181FB016081718177
:10382000009719F061157105A1F46115710549F052
:10383000232BB1F0FB01808190E091958195910956
:103840000AC0009769F0232B59F0FC01808190E0B9
:1038500002C00E94472621E0892B19F020E001C018
:1038600021E0822F08950F931F93CF93DF93EC01F4
:1038700088819981009729F02A813B812617370793
:1038800088F48B016F5F7F4F0E945F25009761F086
:10389000998388831B830A832C813D81232B11F418
:1038A000FC01108281E001C080E0DF91CF911F9187
:1038B0000F910895EF92FF920F931F93CF93DF9391
:1038C0006115710511F480E01CC041155105C1F06E
:1038D0007B01EC018C819D818A01080F191FB801C1
:1038E000CE010E94331C882371F3288139818C8199
:1038F0009D81B701820F931F0E9450261D830C8368
:1039000081E0DF91CF911F910F91FF90EF9008958B
:10391000CF93DF93EC0188819981009711F00E9489
:10392000D624198218821D821C821B821A82DF9182
:10393000CF910895EF92FF920F931F93CF93DF9350
:10394000EC017B018A01BA010E94331C811104C081
:10395000CE010E94881C07C01D830C83B70188819B
:1039600099810E945026CE01DF91CF911F910F9136
:10397000FF90EF900895CF93DF93EC01FB01861742
:10398000970761F0608171816115710529F04481AB
:1039900055810E949A1C02C00E94881CCE01DF91B2
:1039A000CF910895FC01808191810C94D624EF92EF
:1039B000FF920F931F93CF93DF93EC01198218822C
:1039C0001B821A821D821C826115710509F18B010F
:1039D000CB010E9452237C01BC01CE010E94331C0A
:1039E000811109C0CE01DF91CF911F910F91FF90FE
:1039F000EF900C94881CFD82EC82B801888199813B
:103A0000DF91CF911F910F91FF90EF900C944B237A
:103A1000DF91CF911F910F91FF90EF900895FC01DE
:103A20001182108213821282158214820C94BB1CA4
:103A3000FC01118210821382128215821482611598
:103A4000710551F0FB0101900020E9F73197AF01BA
:103A5000461B570B0C949A1C0895BF92CF92DF928D
:103A6000EF92FF920F931F93CF93DF937C016B0133
:103A7000EA0189012417350720F48D2FE901042F6D
:103A8000182F69EC71E0C7010E94181DD601149629
:103A90008D919C911597C817D90740F5801791070C
:103AA00008F48C01D601ED91FC911197E00FF11F04
:103AB000B08010826D917C916C0F7D1F6115710536
:103AC00061F0FB0101900020E9F73197AF01461B3F
:103AD000570BC7010E949A1C03C0C7010E94881C93
:103AE000D601ED91FC91E00FF11FB082C701DF918B
:103AF000CF911F910F91FF90EF90DF90CF90BF90EB
:103B000008958F929F92AF92BF92CF92DF92EF92E1
:103B1000FF926B017C010E94491B4B015C01C114A7
:103B2000D104E104F104F1F00E94491BDC01CB0156
:103B300088199909AA09BB09883E9340A105B105D6
:103B400070F321E0C21AD108E108F10888EE880E6E
:103B500083E0981EA11CB11CC114D104E104F1043E
:103B600019F7DDCFFF90EF90DF90CF90BF90AF902F
:103B70009F908F9008952FB7F8946091D805709119
:103B8000D9058091DA059091DB052FBF08951F922A
:103B90000F920FB60F9211242F933F938F939F9301
:103BA000AF93BF938091D8059091D905A091DA0584
:103BB000B091DB053091D70526E0230F2D3720F497
:103BC0000296A11DB11D05C029E8230F0396A11D72
:103BD000B11D2093D7058093D8059093D905A09364
:103BE000DA05B093DB058091DC059091DD05A091AD
:103BF000DE05B091DF050196A11DB11D8093DC05A6
:103C00009093DD05A093DE05B093DF05BF91AF91E2
:103C10009F918F913F912F910F900FBE0F901F900A
:103C20001895833081F028F4813099F08230A1F02A
:103C300008958730A9F08830B9F08430D1F48091AC
:103C400080008F7D03C0809180008F7780938000FB
:103C5000089584B58F7702C084B58F7D84BD0895A3
:103C60008091B0008F7703C08091B0008F7D8093EA
:103C7000B00008951F93CF93DF93282F30E0F90110
:103C8000EF57FD4F8491F901E359FD4FD491F901AC
:103C9000E75AFD4FC491CC23C1F0162F81110E9429
:103CA000111EEC2FF0E0EE0FFF1FEB55FC4FA5911E
:103CB000B4919FB7F894111104C08C91D095D8237A
:103CC00002C0EC91DE2BDC939FBFDF91CF911F915F
:103CD0000895CF93DF9390E0FC01E359FD4F2491C9
:103CE000FC01E75AFD4F8491882361F190E0880F31
:103CF000991FFC01E556FC4FC591D491FC01EB5591
:103D0000FC4FA591B491611109C09FB7F8948881C7
:103D1000209582238883EC912E230BC0623061F4BE
:103D20009FB7F8948881322F309583238883EC9154
:103D30002E2B2C939FBF06C08FB7F894E8812E2BB3
:103D400028838FBFDF91CF910895CF92DF92EF92BA
:103D5000FF926C018FEA93E00E94460BC114D104DC
:103D6000E9F08FED91E00E94300B0D2C000CEE0875
:103D7000FF08F7FE0EC06DE28AE492E00E94921BFB
:103D800066277727CB016C197D098E099F094AE0C8
:103D900003C04AE0C701B6010E941D0EFF90EF90DC
:103DA000DF90CF900C94420BCF93DF93EC0181E531
:103DB00091E00E94C31A64EC79E080E090E00E94F8
:103DC000811D8BE691E00E94C31A67E171E0CE018C
:103DD0000E94D71CCE01DF91CF910895EAE4F2E072
:103DE0001382128288EE93E0A0E0B0E08483958392
:103DF000A683B78326E131E03183208325EC30E0D0
:103E00003587248724EC30E03787268720EC30E0A4
:103E1000318B208B21EC30E0338B228B22EC30E095
:103E2000358B248B26EC30E0378B268B118E128E4F
:103E3000138E148EE7EEF2E0138212828483958350
:103E4000A683B78388E291E091838083E3EFF2E079
:103E500080E5808381E08183EBE1F3E015821682C7
:103E60001186138682E090E0A0E0B0E08487958719
:103E7000A687B78713A215A614A68AE391E093A795
:103E800082A717A6E5EFF2E086E491E091838083B4
:103E900089E0868788E087870895CF92DF92EF9246
:103EA000FF920F931F93CF938C010E94BB1D6B0158
:103EB0007C010E94BB1DDC01CB018C199D09AE0960
:103EC000BF0980339547A105B105B8F5C0911A0324
:103ED000CC2371F08091160390911703A0911803E1
:103EE000B0911903F80180839183A283B38326C024
:103EF00085EF92E00E94C5108823D9F285EF92E009
:103F00000E94AB10C82F8823A1F244E050E068EF74
:103F100072E080EF91E00E942A26892B49F084E02C
:103F2000E8EFF2E0D80101900D928A95E1F706C022
:103F300085EF92E00E940913BCCFC0E08C2FCF9197
:103F40001F910F91FF90EF90DF90CF900895CF9247
:103F5000DF92EF92FF920F931F93CF93DF93CDB732
:103F6000DEB72C970FB6F894DEBF0FBECDBFFC01B5
:103F7000248135812331310509F041C08B016C0169
:103F800069EC71E0CE0107960E94181D780100E0EF
:103F900010E098012C5F3F4FA801B601CE010196B9
:103FA0000E942D1DBE016F5F7F4FCE0107960E94BC
:103FB0004F0CCE0101960E94D21C1092E105109286
:103FC000E00540E150E060E070E08F8198850E945C
:103FD0002C22F70161937F018091E0059091E1052A
:103FE000892B39F40B5F1F4F0431110591F611E055
:103FF00001C010E0CE0107960E94D21C01C010E063
:10400000812F2C960FB6F894DEBF0FBECDBFDF9187
:10401000CF911F910F91FF90EF90DF90CF90089577
:10402000789484B5826084BD84B5816084BD85B593
:10403000826085BD85B5816085BD80916E0081609F
:1040400080936E0010928100809181008260809345
:104050008100809181008160809381008091800047
:104060008160809380008091B10084608093B10072
:104070008091B00081608093B00080917A0084606C
:1040800080937A0080917A00826080937A00809198
:104090007A008E7F80937A0080917A008068809386
:1040A0007A001092C100E0915A02F0915B0282E026
:1040B0008083E0915602F09157021082E0915802FD
:1040C000F091590287E6808310926202E0915E02CD
:1040D000F0915F0286E08083E0915C02F0915D02E6
:1040E000808180618083E0915C02F0915D0280813B
:1040F00088608083E0915C02F0915D02808180683D
:104100008083E0915C02F0915D0280818F7D8083ED
:1041100060E085E10E94691E80E197E2A0E0B0E0E6
:1041200080934E0290934F02A0935002B09351029D
:10413000CFB7F8948091CA03811127C0E3E6F2E07B
:104140008491E7E7F2E09491E82FF0E0EE0FFF1F93
:10415000E556FC4FA591B491EC91E92321F461E07F
:104160008AE00E943A1E61E08AE00E94691E8CB5D6
:1041700080618CBD8CB580648CBD61E08DE00E9457
:10418000691E61E08BE00E94691E8091CA038F5F07
:104190008093CA03CFBF80E7809315031092D003AA
:1041A0001092CF031092270210924902109225021A
:1041B000C1E0C09324021092FF0161E082E10E94FD
:1041C0003A1E61E083E10E943A1E8091B9008E7F21
:1041D0008093B9008091B9008D7F8093B90080E20F
:1041E0008093B80085E48093BC0085EC9FE09093B9
:1041F000CE038093CD0386EC9FE09093CC03809315
:10420000CB0380911503C09326028093480210923D
:1042100027021092490261E287EE92E00E947C1030
:104220000E94820A80911503C0932602809348025F
:10423000109227021092490261E887EE92E00E94F4
:104240007C100E94820A80911503C09326028093FD
:10425000480210922702109249026FEE87EE92E018
:104260000E947C100E94820A8BE691E00E94C31A91
:104270000E94610B80E090E00E946E2380936403B3
:10428000882321F08EEE91E00E94281A85E992E0C1
:104290000E94460B0E94420B0E940D020E943E1B90
:1042A000FBCF0F931F93CF93DF93CDB7DEB761970B
:1042B0000FB6F894DEBF0FBECDBF01E010E08091D5
:1042C0006403282F30E0021713076CF40983CE0132
:1042D00001960E94281A8A81811102C0898103C037
:1042E0000F5F1F4FECCF61960FB6F894DEBF0FBE85
:1042F000CDBFDF91CF911F910F910895FC01608197
:10430000F1E16F9FB00111246F5F7F4F41E150E0F9
:104310000C9476238F929F92AF92BF92CF92DF92AE
:10432000EF92FF92CF93DF93EC01688179818A81CC
:104330009B81611571058105910521F464E279ED98
:104340008BE597E02DE133EF41E050E00E94C02380
:1043500049015A019B01AC01A7EAB1E40E94DF23A5
:104360006B017C01ACEEB4EFA50194010E94ED233A
:10437000DC01CB018C0D9D1DAE1DBF1DB7FF03C021
:104380000197A109B04888839983AA83BB83BC01A4
:10439000CD019F77DF91CF91FF90EF90DF90CF908D
:1043A000BF90AF909F908F9008958F929F92AF9201
:1043B000BF92CF92DF92EF92FF92609108017091CD
:1043C000090180910A0190910B0161157105810528
:1043D000910521F464E279ED8BE597E02DE133EF6F
:1043E00041E050E00E94C02349015A019B01AC0109
:1043F000A7EAB1E40E94DF236B017C01ACEEB4EFCD
:10440000A50194010E94ED23DC01CB018C0D9D1DC3
:10441000AE1DBF1DB7FF03C00197A109B04880932F
:10442000080190930901A0930A01B0930B01BC010C
:10443000CD019F77FF90EF90DF90CF90BF90AF902E
:104440009F908F9008956093080170930901809365
:104450000A0190930B010895A0E0B0E0E2E3F2E2DC
:104460000C94F3235C016B017A016115710519F05D
:10447000FB0191838083E114F10429F0C7010297C5
:10448000839708F0E5C0E5012196F5011081812FA1
:1044900090E00E944223892B11F05E01F4CF1D327F
:1044A00029F42196F501118101E007C01B3221F4A6
:1044B000E5012296F501118100E0E114F10409F112
:1044C000F0E1EF16F10429F43FC010E3E114F10428
:1044D00021F128E0E216F10401F154F4E2E0EE16D5
:1044E000F10421F5812C912CA12CB0E4BB2E3EC00F
:1044F000FAE0EF16F10439F020E1E216F104B1F42C
:1045000030C0103319F1FAE0EF2EF12CACEC8A2E0A
:10451000982CA82CACE0BA2E29C078E0E72EF12C1C
:10452000812C912CA12CE0E1BE2E20C060E070E037
:1045300080E090E897010F2C000C440B550B0E9473
:104540009E2349015A0112C0103359F488818F7D8E
:10455000883509F0BACF19812296026080E1E82EF1
:10456000F12C812C912CA12C68E0B62E40E060E06B
:1045700070E0CB0127010F2C000C66087708FE01C4
:1045800050ED352E310E29E0231570F42FEB210F5D
:104590002A3118F439EC332E06C02FE9210F2A31C5
:1045A00018F529EA322E310E232D30E02E153F0565
:1045B000DCF447FD16C086169706A806B90670F00B
:1045C000A30192010E948E23630D711D811D911D17
:1045D00061307105810520E8920710F04FEF01C0AE
:1045E00041E021961081CBCF202F2170C114D1043E
:1045F00071F0442329F02197F601D183C08307C0CD
:1046000001FF19C02297F601D183C08314C047FF70
:1046100012C0222329F060E070E080E090E804C03E
:104620006FEF7FEF8FEF9FE722E230E03093E105FD
:104630002093E00509C0222381F090958095709524
:1046400061957F4F8F4F9F4F462F372F282F12C0D6
:1046500040E030E020E090E00DC097FFF5CF82E22F
:1046600090E09093E1058093E0056FEF7FEF8FEF8F
:104670009FE7EACF642F732F822FCDB7DEB7E1E13A
:104680000C940F2491110C945B23803219F0895003
:104690008550C8F70895FB01DC0105900D920020BC
:1046A000E1F70895FC0105900020E9F780959095C9
:1046B0008E0F9F1F0895992788270895DC01CB014D
:1046C000FC01F999FECF06C0F2BDE1BDF89A319622
:1046D00000B40D9241505040B8F70895F999FECFBB
:1046E00092BD81BDF89A992780B50895DC01CB0170
:1046F00003C02D910E94812341505040D0F708956E
:10470000262FF999FECF1FBA92BD81BD20BD0FB6ED
:10471000F894FA9AF99A0FBE01960895DB018F93E7
:104720009F930E94DF23BF91AF91A29F800D911DA7
:10473000A39F900DB29F900D11240895A1E21A2E0F
:10474000AA1BBB1BFD010DC0AA1FBB1FEE1FFF1F35
:10475000A217B307E407F50720F0A21BB30BE40B85
:10476000F50B661F771F881F991F1A9469F76095CC
:104770007095809590959B01AC01BD01CF01089586
:10478000052E97FB1EF400940E94D72357FD07D0F7
:104790000E949E2307FC03D04EF40C94D72350951F
:1047A0004095309521953F4F4F4F5F4F089590951D
:1047B0008095709561957F4F8F4F9F4F08950E9410
:1047C0002924A59F900DB49F900DA49F800D911D4D
:1047D00011240895B7FF0C94DF230E94DF23821B6E
:1047E000930B08952F923F924F925F926F927F9218
:1047F0008F929F92AF92BF92CF92DF92EF92FF92F1
:104800000F931F93CF93DF93CDB7DEB7CA1BDB0B9C
:104810000FB6F894DEBF0FBECDBF09942A88398841
:1048200048885F846E847D848C849B84AA84B98448
:10483000C884DF80EE80FD800C811B81AA81B98154
:10484000CE0FD11D0FB6F894DEBF0FBECDBFED0168
:104850000895A29FB001B39FC001A39F700D811D59
:104860001124911DB29F700D811D1124911D089579
:10487000EE0FFF1F0590F491E02D09940F931F9305
:10488000CF93DF938230910510F482E090E0E091C5
:10489000E405F091E50520E030E0A0E0B0E03097DD
:1048A00019F1408151810281138148175907C8F0DD
:1048B0008417950769F4109731F012960C931297AC
:1048C00013961C9327C00093E4051093E50522C0BE
:1048D0002115310519F04217530718F49A01BD014B
:1048E000EF01DF01F801DBCF21153105F9F0281BBD
:1048F000390B2430310580F48A819B816115710563
:1049000021F0FB019383828304C09093E50580939B
:10491000E405FE01329644C0FE01E20FF31F8193CD
:10492000919322503109398328833AC02091E205BE
:104930003091E305232B41F420910E0130910F01BA
:104940003093E3052093E20520910C0130910D0195
:104950002115310541F42DB73EB74091100150911A
:104960001101241B350BE091E205F091E305E217FC
:10497000F307A0F42E1B3F0B2817390778F0AC0182
:104980004E5F5F4F2417350748F04E0F5F1F50935F
:10499000E3054093E2058193919302C0E0E0F0E0EB
:1049A000CF01DF91CF911F910F910895CF93DF93A6
:1049B000009709F481C0FC01329713821282A09102
:1049C000E405B091E505109781F420813181820FD3
:1049D000931F2091E2053091E3052817390751F51F
:1049E000F093E305E093E20567C0ED0120E030E0DD
:1049F000CE17DF0740F44A815B819E0141155105C6
:104A0000F1F0EA01F5CFD383C28340815181840F55
:104A1000951FC817D90759F488819981840F951F6C
:104A20000296918380838A819B819383828321155F
:104A3000310529F4F093E505E093E4053DC0E90173
:104A4000FB83EA8349915991C40FD51FEC17FD07E9
:104A500061F480819181840F951F0296E901998309
:104A60008883828193819B838A83E0E0F0E01296C1
:104A70008D919C911397009719F0FD01DC01F7CF00
:104A80008D919C9111979D012E5F3F4F820F931F37
:104A90002091E2053091E3052817390769F4309732
:104AA00029F41092E5051092E40502C013821282E7
:104AB000B093E305A093E205DF91CF910895A0E0C4
:104AC000B0E0E5E6F5E20C94F623EC01009721F462
:104AD000CB010E943E24B4C0FC01E60FF71F9C01ED
:104AE00022503109E217F30708F4A8C0D9010D914B
:104AF0001C91119706171707B0F00530110508F43F
:104B00009BC0C80104978617970708F495C0025008
:104B10001109061B170B019311936D937C93CF0121
:104B20000E94D62489C05B01A01AB10A4C01800EF4
:104B3000911EA091E405B091E505612C712CE12C4A
:104B4000F12C109709F446C08D919C911197A815EE
:104B5000B905B1F56C0142E0C40ED11CCA14DB04E6
:104B600078F14C018A189B08640142E0C40ED11C04
:104B70001296BC9012971396AC91B5E0CB16D10467
:104B800040F0B282A38391828082D9016D937C939D
:104B900009C00E5F1F4F800F911FF9019183808321
:104BA000EB2DFA2FE114F10431F0D7011396FC93A9
:104BB000EE93129741C0F093E505E093E4053CC005
:104BC0006816790608F43C017D0112960D90BC919F
:104BD000A02DB7CF8091E2059091E3058816990644
:104BE000E1F466167706C8F480910C0190910D01EE
:104BF000009741F48DB79EB740911001509111017B
:104C0000841B950BE817F907C8F4F093E305E093CC
:104C1000E205F901718360830FC0CB010E943E243D
:104C20007C01009759F0A801BE010E943726CE01F1
:104C30000E94D624C70104C0CE0102C080E090E0EB
:104C4000CDB7DEB7EEE00C94122481E090E0F8944A
:104C50000C941829FB01DC0104C08D91019080198E
:104C600021F441505040C8F7881B990B0895FB016F
:104C7000DC0102C001900D9241505040D8F70895D8
:104C8000DC0101C06D9341505040E0F70895FB01F5
:104C9000DC018D91019080190110D9F3990B0895D1
:104CA000FB01DC0101900D920020E1F70895AEE0D8
:104CB000B0E0EDE5F6E20C9400240D891E898F89A1
:104CC000988D26E02C831A83098397FF02C080E029
:104CD00090E801979E838D83AE01455E5F4F698D9D
:104CE0007A8DCE0101960E9487264D815E8157FD07
:104CF0000AC02F813885421753070CF49A01F80136
:104D0000E20FF31F10822E96E4E00C941C24ABE01B
:104D1000B0E0EDE8F6E20C94F2236C017B018A012D
:104D2000FC0117821682838181FFCCC1CE010196DE
:104D30003C01F6019381F70193FD859193FF8191E9
:104D40007F01882309F4BAC1853239F493FD859136
:104D500093FF81917F01853229F4B60190E00E9492
:104D60007E28E7CF912C212C312CFFE1F315D8F0D0
:104D70008B3279F038F4803279F08332A1F4232D2C
:104D800020611DC08D3261F0803369F4232D2160D4
:104D900016C0832D8260382EE32DE4603E2E2AC09B
:104DA000F32DF8601DC037FC2DC020ED280F2A30F0
:104DB00040F08E32B9F436FC81C1232D2064322EAE
:104DC00019C036FE06C08AE0989E200D1124922E4E
:104DD00011C0EAE02E9E200D1124222EF32DF06248
:104DE0003F2E08C08C3621F4832D8068382E02C0F7
:104DF000883641F4F70193FD859193FF81917F01FE
:104E00008111B3CF982F9F7D9554933028F40C5F78
:104E10001F4F9FE399830DC0833631F0833771F0C4
:104E2000833509F059C021C0F801808189830E5F64
:104E30001F4F88248394912C530113C02801F2E062
:104E40004F0E511CF801A080B18036FE03C0692DC1
:104E500070E002C06FEF7FEFC5010E9473284C0124
:104E60008201F32DFF773F2E16C0280122E0420E6B
:104E7000511CF801A080B18036FE03C0692D70E09E
:104E800002C06FEF7FEFC5010E9468284C01F32D2F
:104E9000F0683F2E820133FC1BC0822D90E0881603
:104EA0009906B0F4B60180E290E00E947E282A9430
:104EB000F4CFF50137FC859137FE81915F01B60192
:104EC00090E00E947E2821102A9421E0821A910805
:104ED0008114910471F7E8C0843611F0893641F5E8
:104EE000F80137FE07C060817181828193810C5F78
:104EF0001F4F08C060817181072E000C880B990B31
:104F00000E5F1F4FF32DFF763F2E97FF09C0909540
:104F10008095709561957F4F8F4F9F4FF0683F2E22
:104F20002AE030E0A3010E94BA28882E861845C0E6
:104F3000853731F4232D2F7EB22E2AE030E025C0B4
:104F4000932D997FB92E8F36C1F018F4883579F0FA
:104F5000B5C0803719F0883721F0B0C0E92FE06183
:104F6000BE2EB4FE0DC0FB2DF460BF2E09C034FE72
:104F70000AC0292F2660B22E06C028E030E005C006
:104F800020E130E002C020E132E0F801B7FE07C0C6
:104F900060817181828193810C5F1F4F06C06081A7
:104FA000718180E090E00E5F1F4FA3010E94BA283C
:104FB000882E8618FB2DFF773F2E36FE0DC0232D41
:104FC0002E7FA22E891458F434FE0BC032FC09C087
:104FD000832D8E7EA82E05C0B82CA32C03C0B82C20
:104FE00001C0B92CA4FE0FC0FE01E80DF11D8081A7
:104FF000803321F49A2D997EA92E09C0A2FE06C005
:10500000B394B39404C08A2D867809F0B394A3FCBA
:1050100011C0A0FE06C0B21488F4280C922C9B1874
:105020000EC0B21460F4B60180E290E00E947E28C7
:10503000B394F7CFB21418F42B1802C0982C212C7B
:10504000A4FE10C0B60180E390E00E947E28A2FE7C
:1050500017C0A1FC03C088E790E002C088E590E09B
:10506000B6010CC08A2D867859F0A1FE02C08BE2F1
:1050700001C080E2A7FC8DE2B60190E00E947E288C
:10508000891438F4B60180E390E00E947E289A9457
:10509000F7CF8A94F301E80DF11D8081B60190E00D
:1050A0000E947E288110F5CF222009F442CEB6015D
:1050B00080E290E00E947E282A94F6CFF601868155
:1050C000978102C08FEF9FEF2B96E2E10C940E24A4
:1050D000FC010590615070400110D8F780959095C3
:1050E0008E0F9F1F0895FC016150704001900110C8
:1050F000D8F7809590958E0F9F1F08950F931F935B
:10510000CF93DF93FB01238121FD03C08FEF9FEF3E
:105110002CC022FF16C04681578124813581421759
:10512000530744F4A081B1819D012F5F3F4F31832C
:1051300020838C93268137812F5F3F4F37832683CF
:1051400014C08B01EC01FB010084F185E02D099571
:10515000892BE1F6D80116968D919C9117970196AF
:1051600017969C938E931697CE01DF91CF911F9146
:105170000F910895FA01AA27283051F1203181F1C9
:10518000E8946F936E7F6E5F7F4F8F4F9F4FAF4F4F
:10519000B1E03ED0B4E03CD0670F781F891F9A1F62
:1051A000A11D680F791F8A1F911DA11D6A0F711D16
:1051B000811D911DA11D20D009F468943F912AE022
:1051C000269F11243019305D3193DEF6CF0108950A
:1051D000462F4770405D4193B3E00FD0C9F7F6CF3B
:1051E000462F4F70405D4A3318F0495D31FD405203
:1051F000419302D0A9F7EACFB4E0A6959795879599
:1052000077956795BA95C9F7009761057105089577
:105210009B01AC010A2E0694579547953795279523
:10522000BA95C9F7620F731F841F951FA01D0895BB
:04523000F894FFCF20
:1052340066666666FFFFFFFF010000000000E605EA
:10524400800000000000921BC70F011BDF1B321BF4
:10525400101B241B000000007C104F10D814F10F09
:1052640015100110F20F000000004118C70FD814E8
:10527400481B000000004C13C510AB106F70656E26
:10528400006661696C0035303020696E76616C6946
:10529400642073746174653A205B004465636B0039
:1052A400436C4361007363616E006D6173740063EA
:1052B40061726400456E43610041644361004D6165
:1052C400737465720041644D61004461436100255B
:1052D4003033640030782530325800256300343090
:1052E4003020696E76616C696420636F6D6D616EE8
:1052F400643A205B005D000D0A0034303020696E92
:1053040076616C696420696E7075743A205B002064
:085314006C696E653A2000008F
:00000001FF
